{
  "_format": "hh-sol-artifact-1",
  "contractName": "WavePortal",
  "sourceName": "contracts/WavePortal.sol",
  "abi": [
    {
      "inputs": [],
      "stateMutability": "payable",
      "type": "constructor"
    },
    {
      "anonymous": false,
      "inputs": [
        {
          "indexed": true,
          "internalType": "address",
          "name": "from",
          "type": "address"
        },
        {
          "indexed": false,
          "internalType": "uint256",
          "name": "timestamp",
          "type": "uint256"
        }
      ],
      "name": "NewGift",
      "type": "event"
    },
    {
      "anonymous": false,
      "inputs": [
        {
          "indexed": true,
          "internalType": "address",
          "name": "from",
          "type": "address"
        },
        {
          "indexed": false,
          "internalType": "uint256",
          "name": "timestamp",
          "type": "uint256"
        }
      ],
      "name": "NewUser",
      "type": "event"
    },
    {
      "anonymous": false,
      "inputs": [
        {
          "indexed": true,
          "internalType": "address",
          "name": "from",
          "type": "address"
        },
        {
          "indexed": false,
          "internalType": "uint256",
          "name": "timestamp",
          "type": "uint256"
        },
        {
          "indexed": false,
          "internalType": "string",
          "name": "message",
          "type": "string"
        }
      ],
      "name": "NewWave",
      "type": "event"
    },
    {
      "inputs": [
        {
          "internalType": "string",
          "name": "name",
          "type": "string"
        }
      ],
      "name": "addLayer",
      "outputs": [
        {
          "internalType": "uint256",
          "name": "",
          "type": "uint256"
        }
      ],
      "stateMutability": "nonpayable",
      "type": "function"
    },
    {
      "inputs": [
        {
          "internalType": "string",
          "name": "name",
          "type": "string"
        }
      ],
      "name": "addShape",
      "outputs": [
        {
          "internalType": "uint256",
          "name": "",
          "type": "uint256"
        }
      ],
      "stateMutability": "nonpayable",
      "type": "function"
    },
    {
      "inputs": [],
      "name": "getAllLayers",
      "outputs": [
        {
          "components": [
            {
              "internalType": "address",
              "name": "owner",
              "type": "address"
            },
            {
              "internalType": "string",
              "name": "name",
              "type": "string"
            },
            {
              "internalType": "uint256",
              "name": "id",
              "type": "uint256"
            },
            {
              "internalType": "uint256",
              "name": "timestamp",
              "type": "uint256"
            }
          ],
          "internalType": "struct WavePortal.Layer[]",
          "name": "",
          "type": "tuple[]"
        }
      ],
      "stateMutability": "view",
      "type": "function"
    },
    {
      "inputs": [],
      "name": "getAllShapes",
      "outputs": [
        {
          "components": [
            {
              "internalType": "address",
              "name": "owner",
              "type": "address"
            },
            {
              "internalType": "string",
              "name": "name",
              "type": "string"
            },
            {
              "internalType": "uint256",
              "name": "id",
              "type": "uint256"
            },
            {
              "internalType": "uint256",
              "name": "timestamp",
              "type": "uint256"
            }
          ],
          "internalType": "struct WavePortal.Shape[]",
          "name": "",
          "type": "tuple[]"
        }
      ],
      "stateMutability": "view",
      "type": "function"
    },
    {
      "inputs": [],
      "name": "getAllWaves",
      "outputs": [
        {
          "components": [
            {
              "internalType": "address",
              "name": "owner",
              "type": "address"
            },
            {
              "internalType": "string",
              "name": "message",
              "type": "string"
            },
            {
              "internalType": "string",
              "name": "geohash",
              "type": "string"
            },
            {
              "internalType": "bytes32",
              "name": "color",
              "type": "bytes32"
            },
            {
              "internalType": "uint256",
              "name": "id",
              "type": "uint256"
            },
            {
              "internalType": "uint256",
              "name": "shapeId",
              "type": "uint256"
            },
            {
              "internalType": "uint256",
              "name": "layerId",
              "type": "uint256"
            },
            {
              "internalType": "uint256",
              "name": "timestamp",
              "type": "uint256"
            }
          ],
          "internalType": "struct WavePortal.Wave[]",
          "name": "",
          "type": "tuple[]"
        }
      ],
      "stateMutability": "view",
      "type": "function"
    },
    {
      "inputs": [],
      "name": "getTotalBatch",
      "outputs": [
        {
          "internalType": "string[]",
          "name": "",
          "type": "string[]"
        },
        {
          "internalType": "uint256[]",
          "name": "",
          "type": "uint256[]"
        }
      ],
      "stateMutability": "view",
      "type": "function"
    },
    {
      "inputs": [],
      "name": "getTotalLayers",
      "outputs": [
        {
          "internalType": "uint256",
          "name": "",
          "type": "uint256"
        }
      ],
      "stateMutability": "view",
      "type": "function"
    },
    {
      "inputs": [],
      "name": "getTotalShapes",
      "outputs": [
        {
          "internalType": "uint256",
          "name": "",
          "type": "uint256"
        }
      ],
      "stateMutability": "view",
      "type": "function"
    },
    {
      "inputs": [],
      "name": "getTotalUser",
      "outputs": [
        {
          "internalType": "uint256",
          "name": "",
          "type": "uint256"
        }
      ],
      "stateMutability": "view",
      "type": "function"
    },
    {
      "inputs": [],
      "name": "getTotalWaves",
      "outputs": [
        {
          "internalType": "uint256",
          "name": "",
          "type": "uint256"
        }
      ],
      "stateMutability": "view",
      "type": "function"
    },
    {
      "inputs": [],
      "name": "getUserStat",
      "outputs": [
        {
          "components": [
            {
              "internalType": "address",
              "name": "account",
              "type": "address"
            },
            {
              "internalType": "uint256",
              "name": "id",
              "type": "uint256"
            },
            {
              "internalType": "uint256",
              "name": "timestamp",
              "type": "uint256"
            },
            {
              "internalType": "uint256",
              "name": "tolShape",
              "type": "uint256"
            },
            {
              "internalType": "uint256",
              "name": "tolWave",
              "type": "uint256"
            },
            {
              "internalType": "bool",
              "name": "isUsed",
              "type": "bool"
            }
          ],
          "internalType": "struct WavePortal.UserStat",
          "name": "",
          "type": "tuple"
        }
      ],
      "stateMutability": "view",
      "type": "function"
    },
    {
      "inputs": [
        {
          "internalType": "address",
          "name": "_addr",
          "type": "address"
        }
      ],
      "name": "getWhiteCondition",
      "outputs": [
        {
          "internalType": "enum WavePortal.WhiteCondition",
          "name": "",
          "type": "uint8"
        }
      ],
      "stateMutability": "view",
      "type": "function"
    },
    {
      "inputs": [
        {
          "internalType": "address",
          "name": "",
          "type": "address"
        }
      ],
      "name": "lastWavedAt",
      "outputs": [
        {
          "internalType": "uint256",
          "name": "",
          "type": "uint256"
        }
      ],
      "stateMutability": "view",
      "type": "function"
    },
    {
      "inputs": [
        {
          "internalType": "uint256",
          "name": "",
          "type": "uint256"
        }
      ],
      "name": "layerMap",
      "outputs": [
        {
          "internalType": "bool",
          "name": "",
          "type": "bool"
        }
      ],
      "stateMutability": "view",
      "type": "function"
    },
    {
      "inputs": [
        {
          "internalType": "uint256",
          "name": "",
          "type": "uint256"
        }
      ],
      "name": "layers",
      "outputs": [
        {
          "internalType": "address",
          "name": "owner",
          "type": "address"
        },
        {
          "internalType": "string",
          "name": "name",
          "type": "string"
        },
        {
          "internalType": "uint256",
          "name": "id",
          "type": "uint256"
        },
        {
          "internalType": "uint256",
          "name": "timestamp",
          "type": "uint256"
        }
      ],
      "stateMutability": "view",
      "type": "function"
    },
    {
      "inputs": [],
      "name": "owner",
      "outputs": [
        {
          "internalType": "address",
          "name": "",
          "type": "address"
        }
      ],
      "stateMutability": "view",
      "type": "function"
    },
    {
      "inputs": [
        {
          "internalType": "address",
          "name": "",
          "type": "address"
        },
        {
          "internalType": "uint256",
          "name": "",
          "type": "uint256"
        }
      ],
      "name": "shapeMap",
      "outputs": [
        {
          "internalType": "bool",
          "name": "",
          "type": "bool"
        }
      ],
      "stateMutability": "view",
      "type": "function"
    },
    {
      "inputs": [
        {
          "internalType": "address",
          "name": "",
          "type": "address"
        },
        {
          "internalType": "uint256",
          "name": "",
          "type": "uint256"
        }
      ],
      "name": "shapes",
      "outputs": [
        {
          "internalType": "address",
          "name": "owner",
          "type": "address"
        },
        {
          "internalType": "string",
          "name": "name",
          "type": "string"
        },
        {
          "internalType": "uint256",
          "name": "id",
          "type": "uint256"
        },
        {
          "internalType": "uint256",
          "name": "timestamp",
          "type": "uint256"
        }
      ],
      "stateMutability": "view",
      "type": "function"
    },
    {
      "inputs": [],
      "name": "totalLayers",
      "outputs": [
        {
          "internalType": "uint256",
          "name": "",
          "type": "uint256"
        }
      ],
      "stateMutability": "view",
      "type": "function"
    },
    {
      "inputs": [],
      "name": "totalShapes",
      "outputs": [
        {
          "internalType": "uint256",
          "name": "",
          "type": "uint256"
        }
      ],
      "stateMutability": "view",
      "type": "function"
    },
    {
      "inputs": [],
      "name": "totalUsers",
      "outputs": [
        {
          "internalType": "uint256",
          "name": "",
          "type": "uint256"
        }
      ],
      "stateMutability": "view",
      "type": "function"
    },
    {
      "inputs": [],
      "name": "totalWaves",
      "outputs": [
        {
          "internalType": "uint256",
          "name": "",
          "type": "uint256"
        }
      ],
      "stateMutability": "view",
      "type": "function"
    },
    {
      "inputs": [
        {
          "internalType": "address",
          "name": "",
          "type": "address"
        }
      ],
      "name": "userMap",
      "outputs": [
        {
          "internalType": "address",
          "name": "account",
          "type": "address"
        },
        {
          "internalType": "uint256",
          "name": "id",
          "type": "uint256"
        },
        {
          "internalType": "uint256",
          "name": "timestamp",
          "type": "uint256"
        },
        {
          "internalType": "uint256",
          "name": "tolShape",
          "type": "uint256"
        },
        {
          "internalType": "uint256",
          "name": "tolWave",
          "type": "uint256"
        },
        {
          "internalType": "bool",
          "name": "isUsed",
          "type": "bool"
        }
      ],
      "stateMutability": "view",
      "type": "function"
    },
    {
      "inputs": [
        {
          "internalType": "string",
          "name": "_message",
          "type": "string"
        },
        {
          "internalType": "string",
          "name": "_geohash",
          "type": "string"
        },
        {
          "internalType": "bytes32",
          "name": "_color",
          "type": "bytes32"
        },
        {
          "internalType": "uint256",
          "name": "_shapeId",
          "type": "uint256"
        },
        {
          "internalType": "uint256",
          "name": "_layerId",
          "type": "uint256"
        }
      ],
      "name": "wave",
      "outputs": [],
      "stateMutability": "nonpayable",
      "type": "function"
    },
    {
      "inputs": [],
      "name": "waveGift",
      "outputs": [],
      "stateMutability": "nonpayable",
      "type": "function"
    },
    {
      "inputs": [
        {
          "internalType": "uint256",
          "name": "",
          "type": "uint256"
        }
      ],
      "name": "waves",
      "outputs": [
        {
          "internalType": "address",
          "name": "owner",
          "type": "address"
        },
        {
          "internalType": "string",
          "name": "message",
          "type": "string"
        },
        {
          "internalType": "string",
          "name": "geohash",
          "type": "string"
        },
        {
          "internalType": "bytes32",
          "name": "color",
          "type": "bytes32"
        },
        {
          "internalType": "uint256",
          "name": "id",
          "type": "uint256"
        },
        {
          "internalType": "uint256",
          "name": "shapeId",
          "type": "uint256"
        },
        {
          "internalType": "uint256",
          "name": "layerId",
          "type": "uint256"
        },
        {
          "internalType": "uint256",
          "name": "timestamp",
          "type": "uint256"
        }
      ],
      "stateMutability": "view",
      "type": "function"
    }
  ],
  "bytecode": "0x608060405266038d7ea4c68000600655336000806101000a81548173ffffffffffffffffffffffffffffffffffffffff021916908373ffffffffffffffffffffffffffffffffffffffff160217905550620000956040518060400160405280600581526020017f4561727468000000000000000000000000000000000000000000000000000000815250620000ed60201b60201c565b5060644442620000a69190620004fa565b620000b29190620005cd565b600581905550620000e76040518060600160405280602c81526020016200430d602c9139620002b460201b620025af1760201c565b620006cc565b60008060009054906101000a900473ffffffffffffffffffffffffffffffffffffffff1673ffffffffffffffffffffffffffffffffffffffff163373ffffffffffffffffffffffffffffffffffffffff161462000181576040517f08c379a00000000000000000000000000000000000000000000000000000000081526004016200017890620004bc565b60405180910390fd5b6001806000828254620001959190620004fa565b925050819055506001600c6000600154815260200190815260200160002060006101000a81548160ff021916908315150217905550600760405180608001604052803373ffffffffffffffffffffffffffffffffffffffff168152602001848152602001600154815260200142815250908060018154018082558091505060019003906000526020600020906004020160009091909190915060008201518160000160006101000a81548173ffffffffffffffffffffffffffffffffffffffff021916908373ffffffffffffffffffffffffffffffffffffffff16021790555060208201518160010190805190602001906200029392919062000380565b50604082015181600201556060820151816003015550506001549050919050565b6200035481604051602401620002cb919062000498565b6040516020818303038152906040527f41304fac000000000000000000000000000000000000000000000000000000007bffffffffffffffffffffffffffffffffffffffffffffffffffffffff19166020820180517bffffffffffffffffffffffffffffffffffffffffffffffffffffffff83818316178352505050506200035760201b60201c565b50565b60008151905060006a636f6e736f6c652e6c6f679050602083016000808483855afa5050505050565b8280546200038e9062000597565b90600052602060002090601f016020900481019282620003b25760008555620003fe565b82601f10620003cd57805160ff1916838001178555620003fe565b82800160010185558215620003fe579182015b82811115620003fd578251825591602001919060010190620003e0565b5b5090506200040d919062000411565b5090565b5b808211156200042c57600081600090555060010162000412565b5090565b60006200043d82620004de565b620004498185620004e9565b93506200045b81856020860162000561565b620004668162000692565b840191505092915050565b600062000480600a83620004e9565b91506200048d82620006a3565b602082019050919050565b60006020820190508181036000830152620004b4818462000430565b905092915050565b60006020820190508181036000830152620004d78162000471565b9050919050565b600081519050919050565b600082825260208201905092915050565b6000620005078262000557565b9150620005148362000557565b9250827fffffffffffffffffffffffffffffffffffffffffffffffffffffffffffffffff038211156200054c576200054b62000605565b5b828201905092915050565b6000819050919050565b60005b838110156200058157808201518184015260208101905062000564565b8381111562000591576000848401525b50505050565b60006002820490506001821680620005b057607f821691505b60208210811415620005c757620005c662000663565b5b50919050565b6000620005da8262000557565b9150620005e78362000557565b925082620005fa57620005f962000634565b5b828206905092915050565b7f4e487b7100000000000000000000000000000000000000000000000000000000600052601160045260246000fd5b7f4e487b7100000000000000000000000000000000000000000000000000000000600052601260045260246000fd5b7f4e487b7100000000000000000000000000000000000000000000000000000000600052602260045260246000fd5b6000601f19601f8301169050919050565b7f4f6e6c79206f776e657200000000000000000000000000000000000000000000600082015250565b613c3180620006dc6000396000f3fe608060405234801561001057600080fd5b506004361061018e5760003560e01c80639a2cdc08116100de578063b9614d9a11610097578063bff1f9e111610071578063bff1f9e1146104d2578063c781267a146104f0578063d117f32014610527578063f6310320146105465761018e565b8063b9614d9a14610466578063ba0cf9e914610496578063bd43a908146104b45761018e565b80639a2cdc08146103795780639e9198c214610397578063a42a4663146103ca578063a82e7bb0146103fa578063a9c63aa01461042a578063ae3bd9c7146104485761018e565b80632bcc23f81161014b5780635d282fd5116101255780635d282fd5146102f157806363e6f0d81461030d5780636a6976921461032b5780638da5cb5b1461035b5761018e565b80632bcc23f81461026b5780632c524a80146102a057806330b56509146102d35761018e565b806306880852146101935780630e646a3f146101b157806317d81002146101e157806319a93b88146101ff5780632698747a1461021d578063291bcab31461024d575b600080fd5b61019b610550565b6040516101a89190613362565b60405180910390f35b6101cb60048036038101906101c6919061296a565b6106e8565b6040516101d891906133a6565b60405180910390f35b6101e9610717565b6040516101f69190613599565b60405180910390f35b610207610762565b6040516102149190613340565b60405180910390f35b610237600480360381019061023291906129a6565b6108bd565b6040516102449190613599565b60405180910390f35b610255610a7d565b6040516102629190613599565b60405180910390f35b61028560048036038101906102809190612941565b610a83565b604051610297969594939291906132a8565b60405180910390f35b6102ba60048036038101906102b5919061296a565b610aec565b6040516102ca949392919061325c565b60405180910390f35b6102db610be1565b6040516102e89190613599565b60405180910390f35b61030b600480360381019061030691906129e7565b610c2c565b005b610315611496565b6040516103229190613599565b60405180910390f35b61034560048036038101906103409190612a8e565b61149c565b60405161035291906133a6565b60405180910390f35b6103636114bc565b60405161037091906131b5565b60405180910390f35b6103816114e0565b60405161038e9190613599565b60405180910390f35b6103b160048036038101906103ac9190612a8e565b61152b565b6040516103c1949392919061325c565b60405180910390f35b6103e460048036038101906103df9190612941565b611613565b6040516103f19190613599565b60405180910390f35b610414600480360381019061040f91906129a6565b61162b565b6040516104219190613599565b60405180910390f35b610432611831565b60405161043f9190613599565b60405180910390f35b61045061187c565b60405161045d919061357e565b60405180910390f35b610480600480360381019061047b9190612941565b61196c565b60405161048d91906133c1565b60405180910390f35b61049e6119c2565b6040516104ab9190613599565b60405180910390f35b6104bc6119c8565b6040516104c99190613384565b60405180910390f35b6104da611bd4565b6040516104e79190613599565b60405180910390f35b61050a60048036038101906105059190612a8e565b611bda565b60405161051e9897969594939291906131d0565b60405180910390f35b61052f611d62565b60405161053d929190613309565b60405180910390f35b61054e61216e565b005b6060600960003373ffffffffffffffffffffffffffffffffffffffff1673ffffffffffffffffffffffffffffffffffffffff168152602001908152602001600020805480602002602001604051908101604052809291908181526020016000905b828210156106df57838290600052602060002090600402016040518060800160405290816000820160009054906101000a900473ffffffffffffffffffffffffffffffffffffffff1673ffffffffffffffffffffffffffffffffffffffff1673ffffffffffffffffffffffffffffffffffffffff16815260200160018201805461063a9061389e565b80601f01602080910402602001604051908101604052809291908181526020018280546106669061389e565b80156106b35780601f10610688576101008083540402835291602001916106b3565b820191906000526020600020905b81548152906001019060200180831161069657829003601f168201915b5050505050815260200160028201548152602001600382015481525050815260200190600101906105b1565b50505050905090565b600a6020528160005260406000206020528060005260406000206000915091509054906101000a900460ff1681565b600061075a6040518060400160405280601881526020017f5765206861766520256420746f74616c20736861706573210000000000000000815250600254612648565b600254905090565b60606007805480602002602001604051908101604052809291908181526020016000905b828210156108b457838290600052602060002090600402016040518060800160405290816000820160009054906101000a900473ffffffffffffffffffffffffffffffffffffffff1673ffffffffffffffffffffffffffffffffffffffff1673ffffffffffffffffffffffffffffffffffffffff16815260200160018201805461080f9061389e565b80601f016020809104026020016040519081016040528092919081815260200182805461083b9061389e565b80156108885780601f1061085d57610100808354040283529160200191610888565b820191906000526020600020905b81548152906001019060200180831161086b57829003601f168201915b505050505081526020016002820154815260200160038201548152505081526020019060010190610786565b50505050905090565b60008060009054906101000a900473ffffffffffffffffffffffffffffffffffffffff1673ffffffffffffffffffffffffffffffffffffffff163373ffffffffffffffffffffffffffffffffffffffff161461094e576040517f08c379a00000000000000000000000000000000000000000000000000000000081526004016109459061347e565b60405180910390fd5b6001806000828254610960919061378f565b925050819055506001600c6000600154815260200190815260200160002060006101000a81548160ff021916908315150217905550600760405180608001604052803373ffffffffffffffffffffffffffffffffffffffff168152602001848152602001600154815260200142815250908060018154018082558091505060019003906000526020600020906004020160009091909190915060008201518160000160006101000a81548173ffffffffffffffffffffffffffffffffffffffff021916908373ffffffffffffffffffffffffffffffffffffffff1602179055506020820151816001019080519060200190610a5c9291906127a9565b50604082015181600201556060820151816003015550506001549050919050565b60035481565b600b6020528060005260406000206000915090508060000160009054906101000a900473ffffffffffffffffffffffffffffffffffffffff16908060010154908060020154908060030154908060040154908060050160009054906101000a900460ff16905086565b60096020528160005260406000208181548110610b0857600080fd5b9060005260206000209060040201600091509150508060000160009054906101000a900473ffffffffffffffffffffffffffffffffffffffff1690806001018054610b529061389e565b80601f0160208091040260200160405190810160405280929190818152602001828054610b7e9061389e565b8015610bcb5780601f10610ba057610100808354040283529160200191610bcb565b820191906000526020600020905b815481529060010190602001808311610bae57829003601f168201915b5050505050908060020154908060030154905084565b6000610c246040518060400160405280601881526020017f5765206861766520256420746f74616c206c6179657273210000000000000000815250600154612648565b600154905090565b42600a600d60003373ffffffffffffffffffffffffffffffffffffffff1673ffffffffffffffffffffffffffffffffffffffff16815260200190815260200160002054610c79919061378f565b10610cb9576040517f08c379a0000000000000000000000000000000000000000000000000000000008152600401610cb09061353e565b60405180910390fd5b42600d60003373ffffffffffffffffffffffffffffffffffffffff1673ffffffffffffffffffffffffffffffffffffffff1681526020019081526020016000208190555060646005544244610d0e919061378f565b610d18919061378f565b610d229190613901565b600581905550600c600082815260200190815260200160002060009054906101000a900460ff16610d88576040517f08c379a0000000000000000000000000000000000000000000000000000000008152600401610d7f906134be565b60405180910390fd5b6000600b60003373ffffffffffffffffffffffffffffffffffffffff1673ffffffffffffffffffffffffffffffffffffffff1681526020019081526020016000206040518060c00160405290816000820160009054906101000a900473ffffffffffffffffffffffffffffffffffffffff1673ffffffffffffffffffffffffffffffffffffffff1673ffffffffffffffffffffffffffffffffffffffff168152602001600182015481526020016002820154815260200160038201548152602001600482015481526020016005820160009054906101000a900460ff161515151581525050905060008390508160a0015161104557600160046000828254610e90919061378f565b925050819055506040518060c001604052803373ffffffffffffffffffffffffffffffffffffffff1681526020016004548152602001428152602001600081526020016001815260200160011515815250600b60003373ffffffffffffffffffffffffffffffffffffffff1673ffffffffffffffffffffffffffffffffffffffff16815260200190815260200160002060008201518160000160006101000a81548173ffffffffffffffffffffffffffffffffffffffff021916908373ffffffffffffffffffffffffffffffffffffffff1602179055506020820151816001015560408201518160020155606082015181600301556080820151816004015560a08201518160050160006101000a81548160ff021916908315150217905550905050610ff06040518060400160405280600481526020017f4d6574610000000000000000000000000000000000000000000000000000000081525061162b565b90503373ffffffffffffffffffffffffffffffffffffffff167fd75b88a9203b17f9356ca063241beac16a25d5a46f485b378c2c229e864bdd4d426040516110389190613599565b60405180910390a26112b2565b600a60003373ffffffffffffffffffffffffffffffffffffffff1673ffffffffffffffffffffffffffffffffffffffff168152602001908152602001600020600082815260200190815260200160002060009054906101000a900460ff166110e2576040517f08c379a00000000000000000000000000000000000000000000000000000000081526004016110d9906134fe565b60405180910390fd5b6001826080018181516110f5919061378f565b9150818152505060006002811115611136577f4e487b7100000000000000000000000000000000000000000000000000000000600052602160045260246000fd5b600e60003373ffffffffffffffffffffffffffffffffffffffff1673ffffffffffffffffffffffffffffffffffffffff16815260200190815260200160002060009054906101000a900460ff1660028111156111bb577f4e487b7100000000000000000000000000000000000000000000000000000000600052602160045260246000fd5b1480156111cd57506004826080015110155b80156111de57506002826060015110155b156112b1576001600e60003373ffffffffffffffffffffffffffffffffffffffff1673ffffffffffffffffffffffffffffffffffffffff16815260200190815260200160002060006101000a81548160ff0219169083600281111561126c577f4e487b7100000000000000000000000000000000000000000000000000000000600052602160045260246000fd5b02179055506112b06040518060400160405280601781526020017f6e65772067696674207573657220257320636f6d696e67000000000000000000815250336126e4565b5b5b6001600360008282546112c5919061378f565b9250508190555060086040518061010001604052803373ffffffffffffffffffffffffffffffffffffffff168152602001898152602001888152602001878152602001600354815260200183815260200185815260200142815250908060018154018082558091505060019003906000526020600020906008020160009091909190915060008201518160000160006101000a81548173ffffffffffffffffffffffffffffffffffffffff021916908373ffffffffffffffffffffffffffffffffffffffff16021790555060208201518160010190805190602001906113ac9291906127a9565b5060408201518160020190805190602001906113c99291906127a9565b50606082015181600301556080820151816004015560a0820151816005015560c0820151816006015560e08201518160070155505061143d6040518060400160405280600d81526020017f2573206861732077617665642100000000000000000000000000000000000000815250336126e4565b3373ffffffffffffffffffffffffffffffffffffffff167f5f7e16dc676677766a70e9c5628aa6c54ddb8b6e5188e2ae1e1f17f1ffbea71642896040516114859291906135b4565b60405180910390a250505050505050565b60015481565b600c6020528060005260406000206000915054906101000a900460ff1681565b60008054906101000a900473ffffffffffffffffffffffffffffffffffffffff1681565b60006115236040518060400160405280601781526020017f5765206861766520256420746f74616c20776176657321000000000000000000815250600354612648565b600354905090565b6007818154811061153b57600080fd5b90600052602060002090600402016000915090508060000160009054906101000a900473ffffffffffffffffffffffffffffffffffffffff16908060010180546115849061389e565b80601f01602080910402602001604051908101604052809291908181526020018280546115b09061389e565b80156115fd5780601f106115d2576101008083540402835291602001916115fd565b820191906000526020600020905b8154815290600101906020018083116115e057829003601f168201915b5050505050908060020154908060030154905084565b600d6020528060005260406000206000915090505481565b6000600160026000828254611640919061378f565b925050819055506001600b60003373ffffffffffffffffffffffffffffffffffffffff1673ffffffffffffffffffffffffffffffffffffffff168152602001908152602001600020600301600082825461169a919061378f565b925050819055506001600a60003373ffffffffffffffffffffffffffffffffffffffff1673ffffffffffffffffffffffffffffffffffffffff1681526020019081526020016000206000600254815260200190815260200160002060006101000a81548160ff021916908315150217905550600960003373ffffffffffffffffffffffffffffffffffffffff1673ffffffffffffffffffffffffffffffffffffffff16815260200190815260200160002060405180608001604052803373ffffffffffffffffffffffffffffffffffffffff168152602001848152602001600254815260200142815250908060018154018082558091505060019003906000526020600020906004020160009091909190915060008201518160000160006101000a81548173ffffffffffffffffffffffffffffffffffffffff021916908373ffffffffffffffffffffffffffffffffffffffff16021790555060208201518160010190805190602001906118109291906127a9565b50604082015181600201556060820151816003015550506002549050919050565b60006118746040518060400160405280601781526020017f5765206861766520256420746f74616c20757365727321000000000000000000815250600454612648565b600454905090565b61188461282f565b600b60003373ffffffffffffffffffffffffffffffffffffffff1673ffffffffffffffffffffffffffffffffffffffff1681526020019081526020016000206040518060c00160405290816000820160009054906101000a900473ffffffffffffffffffffffffffffffffffffffff1673ffffffffffffffffffffffffffffffffffffffff1673ffffffffffffffffffffffffffffffffffffffff168152602001600182015481526020016002820154815260200160038201548152602001600482015481526020016005820160009054906101000a900460ff161515151581525050905090565b6000600e60008373ffffffffffffffffffffffffffffffffffffffff1673ffffffffffffffffffffffffffffffffffffffff16815260200190815260200160002060009054906101000a900460ff169050919050565b60025481565b60606008805480602002602001604051908101604052809291908181526020016000905b82821015611bcb5783829060005260206000209060080201604051806101000160405290816000820160009054906101000a900473ffffffffffffffffffffffffffffffffffffffff1673ffffffffffffffffffffffffffffffffffffffff1673ffffffffffffffffffffffffffffffffffffffff168152602001600182018054611a769061389e565b80601f0160208091040260200160405190810160405280929190818152602001828054611aa29061389e565b8015611aef5780601f10611ac457610100808354040283529160200191611aef565b820191906000526020600020905b815481529060010190602001808311611ad257829003601f168201915b50505050508152602001600282018054611b089061389e565b80601f0160208091040260200160405190810160405280929190818152602001828054611b349061389e565b8015611b815780601f10611b5657610100808354040283529160200191611b81565b820191906000526020600020905b815481529060010190602001808311611b6457829003601f168201915b5050505050815260200160038201548152602001600482015481526020016005820154815260200160068201548152602001600782015481525050815260200190600101906119ec565b50505050905090565b60045481565b60088181548110611bea57600080fd5b90600052602060002090600802016000915090508060000160009054906101000a900473ffffffffffffffffffffffffffffffffffffffff1690806001018054611c339061389e565b80601f0160208091040260200160405190810160405280929190818152602001828054611c5f9061389e565b8015611cac5780601f10611c8157610100808354040283529160200191611cac565b820191906000526020600020905b815481529060010190602001808311611c8f57829003601f168201915b505050505090806002018054611cc19061389e565b80601f0160208091040260200160405190810160405280929190818152602001828054611ced9061389e565b8015611d3a5780601f10611d0f57610100808354040283529160200191611d3a565b820191906000526020600020905b815481529060010190602001808311611d1d57829003601f168201915b5050505050908060030154908060040154908060050154908060060154908060070154905088565b6060806000600467ffffffffffffffff811115611da8577f4e487b7100000000000000000000000000000000000000000000000000000000600052604160045260246000fd5b604051908082528060200260200182016040528015611ddb57816020015b6060815260200190600190039081611dc65790505b5090506000600467ffffffffffffffff811115611e21577f4e487b7100000000000000000000000000000000000000000000000000000000600052604160045260246000fd5b604051908082528060200260200182016040528015611e4f5781602001602082028036833780820191505090505b5090506040518060400160405280600681526020017f4c6179657273000000000000000000000000000000000000000000000000000081525082600081518110611ec2577f4e487b7100000000000000000000000000000000000000000000000000000000600052603260045260246000fd5b60200260200101819052506040518060400160405280600681526020017f536861706573000000000000000000000000000000000000000000000000000081525082600181518110611f3d577f4e487b7100000000000000000000000000000000000000000000000000000000600052603260045260246000fd5b60200260200101819052506040518060400160405280600581526020017f576176657300000000000000000000000000000000000000000000000000000081525082600281518110611fb8577f4e487b7100000000000000000000000000000000000000000000000000000000600052603260045260246000fd5b60200260200101819052506040518060400160405280600581526020017f557365727300000000000000000000000000000000000000000000000000000081525082600381518110612033577f4e487b7100000000000000000000000000000000000000000000000000000000600052603260045260246000fd5b60200260200101819052506001548160008151811061207b577f4e487b7100000000000000000000000000000000000000000000000000000000600052603260045260246000fd5b602002602001018181525050600254816001815181106120c4577f4e487b7100000000000000000000000000000000000000000000000000000000600052603260045260246000fd5b6020026020010181815250506003548160028151811061210d577f4e487b7100000000000000000000000000000000000000000000000000000000600052603260045260246000fd5b60200260200101818152505060045481600381518110612156577f4e487b7100000000000000000000000000000000000000000000000000000000600052603260045260246000fd5b60200260200101818152505081819350935050509091565b6002808111156121a7577f4e487b7100000000000000000000000000000000000000000000000000000000600052602160045260246000fd5b600e60003373ffffffffffffffffffffffffffffffffffffffff1673ffffffffffffffffffffffffffffffffffffffff16815260200190815260200160002060009054906101000a900460ff16600281111561222c577f4e487b7100000000000000000000000000000000000000000000000000000000600052602160045260246000fd5b141561226d576040517f08c379a0000000000000000000000000000000000000000000000000000000008152600401612264906134de565b60405180910390fd5b600160028111156122a7577f4e487b7100000000000000000000000000000000000000000000000000000000600052602160045260246000fd5b600e60003373ffffffffffffffffffffffffffffffffffffffff1673ffffffffffffffffffffffffffffffffffffffff16815260200190815260200160002060009054906101000a900460ff16600281111561232c577f4e487b7100000000000000000000000000000000000000000000000000000000600052602160045260246000fd5b1461236c576040517f08c379a00000000000000000000000000000000000000000000000000000000081526004016123639061349e565b60405180910390fd5b6064600554424461237d919061378f565b612387919061378f565b6123919190613901565b600581905550603260055411156123dd576040517f08c379a00000000000000000000000000000000000000000000000000000000081526004016123d49061355e565b60405180910390fd5b476006541115612422576040517f08c379a00000000000000000000000000000000000000000000000000000000081526004016124199061345e565b60405180910390fd5b60003373ffffffffffffffffffffffffffffffffffffffff1660065460405161244a906131a0565b60006040518083038185875af1925050503d8060008114612487576040519150601f19603f3d011682016040523d82523d6000602084013e61248c565b606091505b50509050806124d0576040517f08c379a00000000000000000000000000000000000000000000000000000000081526004016124c79061351e565b60405180910390fd5b6002600e60003373ffffffffffffffffffffffffffffffffffffffff1673ffffffffffffffffffffffffffffffffffffffff16815260200190815260200160002060006101000a81548160ff02191690836002811115612559577f4e487b7100000000000000000000000000000000000000000000000000000000600052602160045260246000fd5b02179055503373ffffffffffffffffffffffffffffffffffffffff167f2f78519c67b0f1ebd12bb040c6692966c8f80a53721f5e7d5dcd7bda67ef869d426040516125a49190613599565b60405180910390a250565b612645816040516024016125c391906133dc565b6040516020818303038152906040527f41304fac000000000000000000000000000000000000000000000000000000007bffffffffffffffffffffffffffffffffffffffffffffffffffffffff19166020820180517bffffffffffffffffffffffffffffffffffffffffffffffffffffffff8381831617835250505050612780565b50565b6126e0828260405160240161265e92919061342e565b6040516020818303038152906040527f9710a9d0000000000000000000000000000000000000000000000000000000007bffffffffffffffffffffffffffffffffffffffffffffffffffffffff19166020820180517bffffffffffffffffffffffffffffffffffffffffffffffffffffffff8381831617835250505050612780565b5050565b61277c82826040516024016126fa9291906133fe565b6040516020818303038152906040527f319af333000000000000000000000000000000000000000000000000000000007bffffffffffffffffffffffffffffffffffffffffffffffffffffffff19166020820180517bffffffffffffffffffffffffffffffffffffffffffffffffffffffff8381831617835250505050612780565b5050565b60008151905060006a636f6e736f6c652e6c6f679050602083016000808483855afa5050505050565b8280546127b59061389e565b90600052602060002090601f0160209004810192826127d7576000855561281e565b82601f106127f057805160ff191683800117855561281e565b8280016001018555821561281e579182015b8281111561281d578251825591602001919060010190612802565b5b50905061282b919061287d565b5090565b6040518060c00160405280600073ffffffffffffffffffffffffffffffffffffffff168152602001600081526020016000815260200160008152602001600081526020016000151581525090565b5b8082111561289657600081600090555060010161287e565b5090565b60006128ad6128a884613609565b6135e4565b9050828152602081018484840111156128c557600080fd5b6128d084828561385c565b509392505050565b6000813590506128e781613bb6565b92915050565b6000813590506128fc81613bcd565b92915050565b600082601f83011261291357600080fd5b813561292384826020860161289a565b91505092915050565b60008135905061293b81613be4565b92915050565b60006020828403121561295357600080fd5b6000612961848285016128d8565b91505092915050565b6000806040838503121561297d57600080fd5b600061298b858286016128d8565b925050602061299c8582860161292c565b9150509250929050565b6000602082840312156129b857600080fd5b600082013567ffffffffffffffff8111156129d257600080fd5b6129de84828501612902565b91505092915050565b600080600080600060a086880312156129ff57600080fd5b600086013567ffffffffffffffff811115612a1957600080fd5b612a2588828901612902565b955050602086013567ffffffffffffffff811115612a4257600080fd5b612a4e88828901612902565b9450506040612a5f888289016128ed565b9350506060612a708882890161292c565b9250506080612a818882890161292c565b9150509295509295909350565b600060208284031215612aa057600080fd5b6000612aae8482850161292c565b91505092915050565b6000612ac38383612dba565b905092915050565b6000612ad78383612f8a565b905092915050565b6000612aeb8383612fed565b905092915050565b6000612aff83836130cb565b905092915050565b6000612b138383613182565b60208301905092915050565b612b28816137e5565b82525050565b612b37816137e5565b82525050565b6000612b488261368a565b612b52818561370d565b935083602082028501612b648561363a565b8060005b85811015612ba05784840389528151612b818582612ab7565b9450612b8c836136cc565b925060208a01995050600181019050612b68565b50829750879550505050505092915050565b6000612bbd82613695565b612bc7818561371e565b935083602082028501612bd98561364a565b8060005b85811015612c155784840389528151612bf68582612acb565b9450612c01836136d9565b925060208a01995050600181019050612bdd565b50829750879550505050505092915050565b6000612c32826136a0565b612c3c818561372f565b935083602082028501612c4e8561365a565b8060005b85811015612c8a5784840389528151612c6b8582612adf565b9450612c76836136e6565b925060208a01995050600181019050612c52565b50829750879550505050505092915050565b6000612ca7826136ab565b612cb18185613740565b935083602082028501612cc38561366a565b8060005b85811015612cff5784840389528151612ce08582612af3565b9450612ceb836136f3565b925060208a01995050600181019050612cc7565b50829750879550505050505092915050565b6000612d1c826136b6565b612d268185613751565b9350612d318361367a565b8060005b83811015612d62578151612d498882612b07565b9750612d5483613700565b925050600181019050612d35565b5085935050505092915050565b612d78816137f7565b82525050565b612d87816137f7565b82525050565b612d9681613803565b82525050565b612da581613803565b82525050565b612db48161384a565b82525050565b6000612dc5826136c1565b612dcf818561376d565b9350612ddf81856020860161386b565b612de881613a1d565b840191505092915050565b6000612dfe826136c1565b612e08818561377e565b9350612e1881856020860161386b565b612e2181613a1d565b840191505092915050565b6000612e39601c8361377e565b9150612e4482613a2e565b602082019050919050565b6000612e5c600a8361377e565b9150612e6782613a57565b602082019050919050565b6000612e7f601e8361377e565b9150612e8a82613a80565b602082019050919050565b6000612ea260128361377e565b9150612ead82613aa9565b602082019050919050565b6000612ec560198361377e565b9150612ed082613ad2565b602082019050919050565b6000612ee860128361377e565b9150612ef382613afb565b602082019050919050565b6000612f0b60148361377e565b9150612f1682613b24565b602082019050919050565b6000612f2e600083613762565b9150612f3982613b4d565b600082019050919050565b6000612f5160088361377e565b9150612f5c82613b50565b602082019050919050565b6000612f7460148361377e565b9150612f7f82613b79565b602082019050919050565b6000608083016000830151612fa26000860182612b1f565b5060208301518482036020860152612fba8282612dba565b9150506040830151612fcf6040860182613182565b506060830151612fe26060860182613182565b508091505092915050565b60006080830160008301516130056000860182612b1f565b506020830151848203602086015261301d8282612dba565b91505060408301516130326040860182613182565b5060608301516130456060860182613182565b508091505092915050565b60c0820160008201516130666000850182612b1f565b5060208201516130796020850182613182565b50604082015161308c6040850182613182565b50606082015161309f6060850182613182565b5060808201516130b26080850182613182565b5060a08201516130c560a0850182612d6f565b50505050565b6000610100830160008301516130e46000860182612b1f565b50602083015184820360208601526130fc8282612dba565b915050604083015184820360408601526131168282612dba565b915050606083015161312b6060860182612d8d565b50608083015161313e6080860182613182565b5060a083015161315160a0860182613182565b5060c083015161316460c0860182613182565b5060e083015161317760e0860182613182565b508091505092915050565b61318b81613840565b82525050565b61319a81613840565b82525050565b60006131ab82612f21565b9150819050919050565b60006020820190506131ca6000830184612b2e565b92915050565b6000610100820190506131e6600083018b612b2e565b81810360208301526131f8818a612df3565b9050818103604083015261320c8189612df3565b905061321b6060830188612d9c565b6132286080830187613191565b61323560a0830186613191565b61324260c0830185613191565b61324f60e0830184613191565b9998505050505050505050565b60006080820190506132716000830187612b2e565b81810360208301526132838186612df3565b90506132926040830185613191565b61329f6060830184613191565b95945050505050565b600060c0820190506132bd6000830189612b2e565b6132ca6020830188613191565b6132d76040830187613191565b6132e46060830186613191565b6132f16080830185613191565b6132fe60a0830184612d7e565b979650505050505050565b600060408201905081810360008301526133238185612b3d565b905081810360208301526133378184612d11565b90509392505050565b6000602082019050818103600083015261335a8184612bb2565b905092915050565b6000602082019050818103600083015261337c8184612c27565b905092915050565b6000602082019050818103600083015261339e8184612c9c565b905092915050565b60006020820190506133bb6000830184612d7e565b92915050565b60006020820190506133d66000830184612dab565b92915050565b600060208201905081810360008301526133f68184612df3565b905092915050565b600060408201905081810360008301526134188185612df3565b90506134276020830184612b2e565b9392505050565b600060408201905081810360008301526134488185612df3565b90506134576020830184613191565b9392505050565b6000602082019050818103600083015261347781612e2c565b9050919050565b6000602082019050818103600083015261349781612e4f565b9050919050565b600060208201905081810360008301526134b781612e72565b9050919050565b600060208201905081810360008301526134d781612e95565b9050919050565b600060208201905081810360008301526134f781612eb8565b9050919050565b6000602082019050818103600083015261351781612edb565b9050919050565b6000602082019050818103600083015261353781612efe565b9050919050565b6000602082019050818103600083015261355781612f44565b9050919050565b6000602082019050818103600083015261357781612f67565b9050919050565b600060c0820190506135936000830184613050565b92915050565b60006020820190506135ae6000830184613191565b92915050565b60006040820190506135c96000830185613191565b81810360208301526135db8184612df3565b90509392505050565b60006135ee6135ff565b90506135fa82826138d0565b919050565b6000604051905090565b600067ffffffffffffffff821115613624576136236139ee565b5b61362d82613a1d565b9050602081019050919050565b6000819050602082019050919050565b6000819050602082019050919050565b6000819050602082019050919050565b6000819050602082019050919050565b6000819050602082019050919050565b600081519050919050565b600081519050919050565b600081519050919050565b600081519050919050565b600081519050919050565b600081519050919050565b6000602082019050919050565b6000602082019050919050565b6000602082019050919050565b6000602082019050919050565b6000602082019050919050565b600082825260208201905092915050565b600082825260208201905092915050565b600082825260208201905092915050565b600082825260208201905092915050565b600082825260208201905092915050565b600081905092915050565b600082825260208201905092915050565b600082825260208201905092915050565b600061379a82613840565b91506137a583613840565b9250827fffffffffffffffffffffffffffffffffffffffffffffffffffffffffffffffff038211156137da576137d9613932565b5b828201905092915050565b60006137f082613820565b9050919050565b60008115159050919050565b6000819050919050565b600081905061381b82613ba2565b919050565b600073ffffffffffffffffffffffffffffffffffffffff82169050919050565b6000819050919050565b60006138558261380d565b9050919050565b82818337600083830152505050565b60005b8381101561388957808201518184015260208101905061386e565b83811115613898576000848401525b50505050565b600060028204905060018216806138b657607f821691505b602082108114156138ca576138c96139bf565b5b50919050565b6138d982613a1d565b810181811067ffffffffffffffff821117156138f8576138f76139ee565b5b80604052505050565b600061390c82613840565b915061391783613840565b92508261392757613926613961565b5b828206905092915050565b7f4e487b7100000000000000000000000000000000000000000000000000000000600052601160045260246000fd5b7f4e487b7100000000000000000000000000000000000000000000000000000000600052601260045260246000fd5b7f4e487b7100000000000000000000000000000000000000000000000000000000600052602160045260246000fd5b7f4e487b7100000000000000000000000000000000000000000000000000000000600052602260045260246000fd5b7f4e487b7100000000000000000000000000000000000000000000000000000000600052604160045260246000fd5b6000601f19601f8301169050919050565b7f47697420426f6e6f756e73206973206f7574206f662072616e67652100000000600082015250565b7f4f6e6c79206f776e657200000000000000000000000000000000000000000000600082015250565b7f43616c6c6572206973206e6f7420696e207468652077686974656c6973740000600082015250565b7f4c61796572206973206e6f742065786973740000000000000000000000000000600082015250565b7f43616c6c657220697320616c7265616479206769667465642100000000000000600082015250565b7f5368617065206973206e6f742065786973740000000000000000000000000000600082015250565b7f47696674205769746864726177204661696c6564000000000000000000000000600082015250565b50565b7f5761697420313073000000000000000000000000000000000000000000000000600082015250565b7f596f75206c6f737420746865206368616e636521000000000000000000000000600082015250565b60038110613bb357613bb2613990565b5b50565b613bbf816137e5565b8114613bca57600080fd5b50565b613bd681613803565b8114613be157600080fd5b50565b613bed81613840565b8114613bf857600080fd5b5056fea26469706673582212203e4f2256b3cf5a3dc9b2bbc8c2b7656ff3755de7e89b205f009b638a614c4e2264736f6c63430008040033596f20796f2c204920616d206120636f6e7472616374206d616465206279204d756c616e6465722e4b696e67",
  "linkReferences": {},
  "deployedLinkReferences": {}
}