{
  "_format": "hh-sol-artifact-1",
  "contractName": "EpicGame",
  "sourceName": "contracts/EpicGame.sol",
  "abi": [
    {
      "inputs": [
        {
          "internalType": "string[]",
          "name": "_name",
          "type": "string[]"
        },
        {
          "internalType": "string[]",
          "name": "_imageURIs",
          "type": "string[]"
        },
        {
          "internalType": "string[]",
          "name": "_intros",
          "type": "string[]"
        }
      ],
      "stateMutability": "nonpayable",
      "type": "constructor"
    },
    {
      "anonymous": false,
      "inputs": [
        {
          "indexed": true,
          "internalType": "address",
          "name": "owner",
          "type": "address"
        },
        {
          "indexed": true,
          "internalType": "address",
          "name": "approved",
          "type": "address"
        },
        {
          "indexed": true,
          "internalType": "uint256",
          "name": "tokenId",
          "type": "uint256"
        }
      ],
      "name": "Approval",
      "type": "event"
    },
    {
      "anonymous": false,
      "inputs": [
        {
          "indexed": true,
          "internalType": "address",
          "name": "owner",
          "type": "address"
        },
        {
          "indexed": true,
          "internalType": "address",
          "name": "operator",
          "type": "address"
        },
        {
          "indexed": false,
          "internalType": "bool",
          "name": "approved",
          "type": "bool"
        }
      ],
      "name": "ApprovalForAll",
      "type": "event"
    },
    {
      "anonymous": false,
      "inputs": [
        {
          "indexed": false,
          "internalType": "uint256",
          "name": "newBossHp",
          "type": "uint256"
        },
        {
          "indexed": false,
          "internalType": "uint256",
          "name": "newPlayerHp",
          "type": "uint256"
        },
        {
          "indexed": false,
          "internalType": "enum EpicGame.AttackState",
          "name": "state",
          "type": "uint8"
        },
        {
          "indexed": false,
          "internalType": "uint256",
          "name": "round",
          "type": "uint256"
        }
      ],
      "name": "AttackComplete",
      "type": "event"
    },
    {
      "anonymous": false,
      "inputs": [
        {
          "indexed": false,
          "internalType": "address",
          "name": "sender",
          "type": "address"
        },
        {
          "indexed": false,
          "internalType": "uint256",
          "name": "tokenId",
          "type": "uint256"
        },
        {
          "indexed": false,
          "internalType": "uint256",
          "name": "charIndex",
          "type": "uint256"
        }
      ],
      "name": "CharacterNFTMinted",
      "type": "event"
    },
    {
      "anonymous": false,
      "inputs": [
        {
          "indexed": true,
          "internalType": "address",
          "name": "previousOwner",
          "type": "address"
        },
        {
          "indexed": true,
          "internalType": "address",
          "name": "newOwner",
          "type": "address"
        }
      ],
      "name": "OwnershipTransferred",
      "type": "event"
    },
    {
      "anonymous": false,
      "inputs": [
        {
          "indexed": true,
          "internalType": "address",
          "name": "from",
          "type": "address"
        },
        {
          "indexed": true,
          "internalType": "address",
          "name": "to",
          "type": "address"
        },
        {
          "indexed": true,
          "internalType": "uint256",
          "name": "tokenId",
          "type": "uint256"
        }
      ],
      "name": "Transfer",
      "type": "event"
    },
    {
      "inputs": [],
      "name": "_generation",
      "outputs": [
        {
          "internalType": "uint256",
          "name": "_value",
          "type": "uint256"
        }
      ],
      "stateMutability": "view",
      "type": "function"
    },
    {
      "inputs": [],
      "name": "_round",
      "outputs": [
        {
          "internalType": "uint256",
          "name": "",
          "type": "uint256"
        }
      ],
      "stateMutability": "view",
      "type": "function"
    },
    {
      "inputs": [
        {
          "internalType": "address",
          "name": "to",
          "type": "address"
        },
        {
          "internalType": "uint256",
          "name": "tokenId",
          "type": "uint256"
        }
      ],
      "name": "approve",
      "outputs": [],
      "stateMutability": "nonpayable",
      "type": "function"
    },
    {
      "inputs": [
        {
          "internalType": "enum EpicGame.Instruct",
          "name": "_instruct",
          "type": "uint8"
        }
      ],
      "name": "attackBoss",
      "outputs": [],
      "stateMutability": "nonpayable",
      "type": "function"
    },
    {
      "inputs": [
        {
          "internalType": "address",
          "name": "owner",
          "type": "address"
        }
      ],
      "name": "balanceOf",
      "outputs": [
        {
          "internalType": "uint256",
          "name": "",
          "type": "uint256"
        }
      ],
      "stateMutability": "view",
      "type": "function"
    },
    {
      "inputs": [
        {
          "internalType": "uint256",
          "name": "",
          "type": "uint256"
        }
      ],
      "name": "charList",
      "outputs": [
        {
          "internalType": "string",
          "name": "name",
          "type": "string"
        },
        {
          "internalType": "string",
          "name": "imageURI",
          "type": "string"
        },
        {
          "internalType": "string",
          "name": "intro",
          "type": "string"
        },
        {
          "internalType": "uint256",
          "name": "characterId",
          "type": "uint256"
        }
      ],
      "stateMutability": "view",
      "type": "function"
    },
    {
      "inputs": [],
      "name": "genesisBoss",
      "outputs": [
        {
          "internalType": "uint256",
          "name": "hp",
          "type": "uint256"
        },
        {
          "internalType": "uint256",
          "name": "maxHp",
          "type": "uint256"
        },
        {
          "internalType": "uint256",
          "name": "critical",
          "type": "uint256"
        },
        {
          "internalType": "uint256",
          "name": "miss",
          "type": "uint256"
        },
        {
          "internalType": "uint256",
          "name": "attack",
          "type": "uint256"
        },
        {
          "internalType": "uint256",
          "name": "heal",
          "type": "uint256"
        },
        {
          "internalType": "uint256",
          "name": "characterId",
          "type": "uint256"
        }
      ],
      "stateMutability": "view",
      "type": "function"
    },
    {
      "inputs": [
        {
          "internalType": "uint256",
          "name": "tokenId",
          "type": "uint256"
        }
      ],
      "name": "getApproved",
      "outputs": [
        {
          "internalType": "address",
          "name": "",
          "type": "address"
        }
      ],
      "stateMutability": "view",
      "type": "function"
    },
    {
      "inputs": [],
      "name": "getCharacters",
      "outputs": [
        {
          "components": [
            {
              "internalType": "string",
              "name": "name",
              "type": "string"
            },
            {
              "internalType": "string",
              "name": "imageURI",
              "type": "string"
            },
            {
              "internalType": "string",
              "name": "intro",
              "type": "string"
            },
            {
              "internalType": "uint256",
              "name": "characterId",
              "type": "uint256"
            }
          ],
          "internalType": "struct EpicGame.CharacterAttr[]",
          "name": "",
          "type": "tuple[]"
        }
      ],
      "stateMutability": "view",
      "type": "function"
    },
    {
      "inputs": [],
      "name": "getGeneration",
      "outputs": [
        {
          "internalType": "uint256",
          "name": "",
          "type": "uint256"
        }
      ],
      "stateMutability": "view",
      "type": "function"
    },
    {
      "inputs": [],
      "name": "getHeors",
      "outputs": [
        {
          "components": [
            {
              "internalType": "uint256",
              "name": "hp",
              "type": "uint256"
            },
            {
              "internalType": "uint256",
              "name": "maxHp",
              "type": "uint256"
            },
            {
              "internalType": "uint256",
              "name": "critical",
              "type": "uint256"
            },
            {
              "internalType": "uint256",
              "name": "miss",
              "type": "uint256"
            },
            {
              "internalType": "uint256",
              "name": "attack",
              "type": "uint256"
            },
            {
              "internalType": "uint256",
              "name": "heal",
              "type": "uint256"
            },
            {
              "internalType": "uint256",
              "name": "characterId",
              "type": "uint256"
            }
          ],
          "internalType": "struct EpicGame.PlayerAttr[]",
          "name": "",
          "type": "tuple[]"
        }
      ],
      "stateMutability": "view",
      "type": "function"
    },
    {
      "inputs": [],
      "name": "getTheHero",
      "outputs": [
        {
          "components": [
            {
              "internalType": "uint256",
              "name": "hp",
              "type": "uint256"
            },
            {
              "internalType": "uint256",
              "name": "maxHp",
              "type": "uint256"
            },
            {
              "internalType": "uint256",
              "name": "critical",
              "type": "uint256"
            },
            {
              "internalType": "uint256",
              "name": "miss",
              "type": "uint256"
            },
            {
              "internalType": "uint256",
              "name": "attack",
              "type": "uint256"
            },
            {
              "internalType": "uint256",
              "name": "heal",
              "type": "uint256"
            },
            {
              "internalType": "uint256",
              "name": "characterId",
              "type": "uint256"
            }
          ],
          "internalType": "struct EpicGame.PlayerAttr",
          "name": "",
          "type": "tuple"
        }
      ],
      "stateMutability": "view",
      "type": "function"
    },
    {
      "inputs": [
        {
          "internalType": "address",
          "name": "owner",
          "type": "address"
        },
        {
          "internalType": "address",
          "name": "operator",
          "type": "address"
        }
      ],
      "name": "isApprovedForAll",
      "outputs": [
        {
          "internalType": "bool",
          "name": "",
          "type": "bool"
        }
      ],
      "stateMutability": "view",
      "type": "function"
    },
    {
      "inputs": [
        {
          "internalType": "uint256",
          "name": "_characterIndex",
          "type": "uint256"
        }
      ],
      "name": "mintCharacterNFT",
      "outputs": [],
      "stateMutability": "nonpayable",
      "type": "function"
    },
    {
      "inputs": [],
      "name": "name",
      "outputs": [
        {
          "internalType": "string",
          "name": "",
          "type": "string"
        }
      ],
      "stateMutability": "view",
      "type": "function"
    },
    {
      "inputs": [
        {
          "internalType": "address",
          "name": "",
          "type": "address"
        }
      ],
      "name": "nftHolderIndex",
      "outputs": [
        {
          "internalType": "uint256",
          "name": "",
          "type": "uint256"
        }
      ],
      "stateMutability": "view",
      "type": "function"
    },
    {
      "inputs": [],
      "name": "owner",
      "outputs": [
        {
          "internalType": "address",
          "name": "",
          "type": "address"
        }
      ],
      "stateMutability": "view",
      "type": "function"
    },
    {
      "inputs": [
        {
          "internalType": "uint256",
          "name": "tokenId",
          "type": "uint256"
        }
      ],
      "name": "ownerOf",
      "outputs": [
        {
          "internalType": "address",
          "name": "",
          "type": "address"
        }
      ],
      "stateMutability": "view",
      "type": "function"
    },
    {
      "inputs": [
        {
          "internalType": "uint256",
          "name": "",
          "type": "uint256"
        }
      ],
      "name": "playerList",
      "outputs": [
        {
          "internalType": "uint256",
          "name": "hp",
          "type": "uint256"
        },
        {
          "internalType": "uint256",
          "name": "maxHp",
          "type": "uint256"
        },
        {
          "internalType": "uint256",
          "name": "critical",
          "type": "uint256"
        },
        {
          "internalType": "uint256",
          "name": "miss",
          "type": "uint256"
        },
        {
          "internalType": "uint256",
          "name": "attack",
          "type": "uint256"
        },
        {
          "internalType": "uint256",
          "name": "heal",
          "type": "uint256"
        },
        {
          "internalType": "uint256",
          "name": "characterId",
          "type": "uint256"
        }
      ],
      "stateMutability": "view",
      "type": "function"
    },
    {
      "inputs": [],
      "name": "renounceOwnership",
      "outputs": [],
      "stateMutability": "nonpayable",
      "type": "function"
    },
    {
      "inputs": [
        {
          "internalType": "address",
          "name": "from",
          "type": "address"
        },
        {
          "internalType": "address",
          "name": "to",
          "type": "address"
        },
        {
          "internalType": "uint256",
          "name": "tokenId",
          "type": "uint256"
        }
      ],
      "name": "safeTransferFrom",
      "outputs": [],
      "stateMutability": "nonpayable",
      "type": "function"
    },
    {
      "inputs": [
        {
          "internalType": "address",
          "name": "from",
          "type": "address"
        },
        {
          "internalType": "address",
          "name": "to",
          "type": "address"
        },
        {
          "internalType": "uint256",
          "name": "tokenId",
          "type": "uint256"
        },
        {
          "internalType": "bytes",
          "name": "_data",
          "type": "bytes"
        }
      ],
      "name": "safeTransferFrom",
      "outputs": [],
      "stateMutability": "nonpayable",
      "type": "function"
    },
    {
      "inputs": [
        {
          "internalType": "address",
          "name": "operator",
          "type": "address"
        },
        {
          "internalType": "bool",
          "name": "approved",
          "type": "bool"
        }
      ],
      "name": "setApprovalForAll",
      "outputs": [],
      "stateMutability": "nonpayable",
      "type": "function"
    },
    {
      "inputs": [
        {
          "internalType": "bytes4",
          "name": "interfaceId",
          "type": "bytes4"
        }
      ],
      "name": "supportsInterface",
      "outputs": [
        {
          "internalType": "bool",
          "name": "",
          "type": "bool"
        }
      ],
      "stateMutability": "view",
      "type": "function"
    },
    {
      "inputs": [],
      "name": "symbol",
      "outputs": [
        {
          "internalType": "string",
          "name": "",
          "type": "string"
        }
      ],
      "stateMutability": "view",
      "type": "function"
    },
    {
      "inputs": [
        {
          "internalType": "uint256",
          "name": "_tokenId",
          "type": "uint256"
        }
      ],
      "name": "tokenURI",
      "outputs": [
        {
          "internalType": "string",
          "name": "",
          "type": "string"
        }
      ],
      "stateMutability": "view",
      "type": "function"
    },
    {
      "inputs": [
        {
          "internalType": "address",
          "name": "from",
          "type": "address"
        },
        {
          "internalType": "address",
          "name": "to",
          "type": "address"
        },
        {
          "internalType": "uint256",
          "name": "tokenId",
          "type": "uint256"
        }
      ],
      "name": "transferFrom",
      "outputs": [],
      "stateMutability": "nonpayable",
      "type": "function"
    },
    {
      "inputs": [
        {
          "internalType": "address",
          "name": "newOwner",
          "type": "address"
        }
      ],
      "name": "transferOwnership",
      "outputs": [],
      "stateMutability": "nonpayable",
      "type": "function"
    },
    {
      "inputs": [
        {
          "internalType": "uint256",
          "name": "charId",
          "type": "uint256"
        },
        {
          "internalType": "string",
          "name": "_name",
          "type": "string"
        },
        {
          "internalType": "string",
          "name": "_imageURI",
          "type": "string"
        },
        {
          "internalType": "string",
          "name": "_intro",
          "type": "string"
        }
      ],
      "name": "updateChar",
      "outputs": [],
      "stateMutability": "nonpayable",
      "type": "function"
    }
  ],
  "bytecode": "0x60806040523480156200001157600080fd5b506040516200642538038062006425833981810160405281019062000037919062000624565b6040518060400160405280600881526020017f48696b617269616e0000000000000000000000000000000000000000000000008152506040518060400160405280600381526020017f484b5200000000000000000000000000000000000000000000000000000000008152508160009080519060200190620000bb92919062000445565b508060019080519060200190620000d492919062000445565b505050620000f7620000eb6200036160201b60201c565b6200036960201b60201c565b60005b83518160ff161015620002a257600a6040518060800160405280868460ff168151811062000151577f4e487b7100000000000000000000000000000000000000000000000000000000600052603260045260246000fd5b60200260200101518152602001858460ff16815181106200019b577f4e487b7100000000000000000000000000000000000000000000000000000000600052603260045260246000fd5b60200260200101518152602001848460ff1681518110620001e5577f4e487b7100000000000000000000000000000000000000000000000000000000600052603260045260246000fd5b602002602001015181526020018360ff16815250908060018154018082558091505060019003906000526020600020906004020160009091909190915060008201518160000190805190602001906200024092919062000445565b5060208201518160010190805190602001906200025f92919062000445565b5060408201518160020190805190602001906200027e92919062000445565b506060820151816003015550506001816200029a919062000753565b9050620000fa565b506040518060e001604052806103e881526020016103e88152602001603281526020016032815260200160328152602001603281526020016000815250600c600082015181600001556020820151816001015560408201518160020155606082015181600301556080820151816004015560a0820151816005015560c082015181600601559050506200034160076200042f60201b62002b4d1760201c565b6200035860086200042f60201b62002b4d1760201c565b505050620008de565b600033905090565b6000600660009054906101000a900473ffffffffffffffffffffffffffffffffffffffff16905081600660006101000a81548173ffffffffffffffffffffffffffffffffffffffff021916908373ffffffffffffffffffffffffffffffffffffffff1602179055508173ffffffffffffffffffffffffffffffffffffffff168173ffffffffffffffffffffffffffffffffffffffff167f8be0079c531659141344cd1fd0a4f28419497f9722a3daafe3b4186f6b6457e060405160405180910390a35050565b6001816000016000828254019250508190555050565b8280546200045390620007d4565b90600052602060002090601f016020900481019282620004775760008555620004c3565b82601f106200049257805160ff1916838001178555620004c3565b82800160010185558215620004c3579182015b82811115620004c2578251825591602001919060010190620004a5565b5b509050620004d29190620004d6565b5090565b5b80821115620004f1576000816000905550600101620004d7565b5090565b60006200050c6200050684620006ee565b620006c5565b905080838252602082019050828560208602820111156200052c57600080fd5b60005b858110156200057b57815167ffffffffffffffff8111156200055057600080fd5b8086016200055f8982620005f7565b855260208501945060208401935050506001810190506200052f565b5050509392505050565b60006200059c62000596846200071d565b620006c5565b905082815260208101848484011115620005b557600080fd5b620005c28482856200079e565b509392505050565b600082601f830112620005dc57600080fd5b8151620005ee848260208601620004f5565b91505092915050565b600082601f8301126200060957600080fd5b81516200061b84826020860162000585565b91505092915050565b6000806000606084860312156200063a57600080fd5b600084015167ffffffffffffffff8111156200065557600080fd5b6200066386828701620005ca565b935050602084015167ffffffffffffffff8111156200068157600080fd5b6200068f86828701620005ca565b925050604084015167ffffffffffffffff811115620006ad57600080fd5b620006bb86828701620005ca565b9150509250925092565b6000620006d1620006e4565b9050620006df82826200080a565b919050565b6000604051905090565b600067ffffffffffffffff8211156200070c576200070b6200089e565b5b602082029050602081019050919050565b600067ffffffffffffffff8211156200073b576200073a6200089e565b5b6200074682620008cd565b9050602081019050919050565b6000620007608262000791565b91506200076d8362000791565b92508260ff0382111562000786576200078562000840565b5b828201905092915050565b600060ff82169050919050565b60005b83811015620007be578082015181840152602081019050620007a1565b83811115620007ce576000848401525b50505050565b60006002820490506001821680620007ed57607f821691505b602082108114156200080457620008036200086f565b5b50919050565b6200081582620008cd565b810181811067ffffffffffffffff821117156200083757620008366200089e565b5b80604052505050565b7f4e487b7100000000000000000000000000000000000000000000000000000000600052601160045260246000fd5b7f4e487b7100000000000000000000000000000000000000000000000000000000600052602260045260246000fd5b7f4e487b7100000000000000000000000000000000000000000000000000000000600052604160045260246000fd5b6000601f19601f8301169050919050565b615b3780620008ee6000396000f3fe608060405234801561001057600080fd5b50600436106101cf5760003560e01c80638534803d11610104578063b0d9ac90116100a2578063e985e9c511610071578063e985e9c51461053f578063ee1ff4db1461056f578063f2fde38b1461058d578063f8b81ef7146105a9576101cf565b8063b0d9ac90146104a5578063b88d4fde146104d5578063c87b56dd146104f1578063d4f3dd8414610521576101cf565b80639ab1bc7e116100de5780639ab1bc7e14610419578063a22cb46514610435578063a876a8a014610451578063ae6d90731461046f576101cf565b80638534803d146103bf5780638da5cb5b146103dd57806395d89b41146103fb576101cf565b806339bb0bf8116101715780636352211e1161014b5780636352211e14610337578063694db4e31461036757806370a0823114610385578063715018a6146103b5576101cf565b806339bb0bf8146102cc57806342842e0e146102e85780634f40c47514610304576101cf565b8063095ea7b3116101ad578063095ea7b314610252578063174a10b01461026e57806323b872dd1461028c57806338e6dab4146102a8576101cf565b806301ffc9a7146101d457806306fdde0314610204578063081812fc14610222575b600080fd5b6101ee60048036038101906101e99190613eb2565b6105c5565b6040516101fb91906149e0565b60405180910390f35b61020c6106a7565b60405161021991906149fb565b60405180910390f35b61023c60048036038101906102379190613f2d565b610739565b60405161024991906148fe565b60405180910390f35b61026c60048036038101906102679190613e76565b6107be565b005b6102766108d6565b60405161028391906149be565b60405180910390f35b6102a660048036038101906102a19190613d70565b61097b565b005b6102b06109db565b6040516102c39796959493929190614d92565b60405180910390f35b6102e660048036038101906102e19190613f04565b610a0b565b005b61030260048036038101906102fd9190613d70565b610f89565b005b61031e60048036038101906103199190613f2d565b610fa9565b60405161032e9493929190614a1d565b60405180910390f35b610351600480360381019061034c9190613f2d565b611181565b60405161035e91906148fe565b60405180910390f35b61036f611233565b60405161037c9190614d32565b60405180910390f35b61039f600480360381019061039a9190613d0b565b611244565b6040516103ac9190614d32565b60405180910390f35b6103bd6112fc565b005b6103c7611384565b6040516103d49190614d17565b60405180910390f35b6103e561149e565b6040516103f291906148fe565b60405180910390f35b6104036114c8565b60405161041091906149fb565b60405180910390f35b610433600480360381019061042e9190613f56565b61155a565b005b61044f600480360381019061044a9190613e3a565b611703565b005b610459611719565b6040516104669190614d32565b60405180910390f35b61048960048036038101906104849190613f2d565b61171f565b60405161049c9796959493929190614d92565b60405180910390f35b6104bf60048036038101906104ba9190613d0b565b611771565b6040516104cc9190614d32565b60405180910390f35b6104ef60048036038101906104ea9190613dbf565b611789565b005b61050b60048036038101906105069190613f2d565b6117eb565b60405161051891906149fb565b60405180910390f35b6105296124fa565b6040516105369190614d32565b60405180910390f35b61055960048036038101906105549190613d34565b612506565b60405161056691906149e0565b60405180910390f35b61057761259a565b604051610584919061499c565b60405180910390f35b6105a760048036038101906105a29190613d0b565b6127b9565b005b6105c360048036038101906105be9190613f2d565b6128b1565b005b60007f80ac58cd000000000000000000000000000000000000000000000000000000007bffffffffffffffffffffffffffffffffffffffffffffffffffffffff1916827bffffffffffffffffffffffffffffffffffffffffffffffffffffffff1916148061069057507f5b5e139f000000000000000000000000000000000000000000000000000000007bffffffffffffffffffffffffffffffffffffffffffffffffffffffff1916827bffffffffffffffffffffffffffffffffffffffffffffffffffffffff1916145b806106a0575061069f82612b63565b5b9050919050565b6060600080546106b69061513e565b80601f01602080910402602001604051908101604052809291908181526020018280546106e29061513e565b801561072f5780601f106107045761010080835404028352916020019161072f565b820191906000526020600020905b81548152906001019060200180831161071257829003601f168201915b5050505050905090565b600061074482612bcd565b610783576040517f08c379a000000000000000000000000000000000000000000000000000000000815260040161077a90614c77565b60405180910390fd5b6004600083815260200190815260200160002060009054906101000a900473ffffffffffffffffffffffffffffffffffffffff169050919050565b60006107c982611181565b90508073ffffffffffffffffffffffffffffffffffffffff168373ffffffffffffffffffffffffffffffffffffffff16141561083a576040517f08c379a000000000000000000000000000000000000000000000000000000000815260040161083190614cd7565b60405180910390fd5b8073ffffffffffffffffffffffffffffffffffffffff16610859612c39565b73ffffffffffffffffffffffffffffffffffffffff161480610888575061088781610882612c39565b612506565b5b6108c7576040517f08c379a00000000000000000000000000000000000000000000000000000000081526004016108be90614b97565b60405180910390fd5b6108d18383612c41565b505050565b6060600b805480602002602001604051908101604052809291908181526020016000905b8282101561097257838290600052602060002090600702016040518060e0016040529081600082015481526020016001820154815260200160028201548152602001600382015481526020016004820154815260200160058201548152602001600682015481525050815260200190600101906108fa565b50505050905090565b61098c610986612c39565b82612cfa565b6109cb576040517f08c379a00000000000000000000000000000000000000000000000000000000081526004016109c290614cf7565b60405180910390fd5b6109d6838383612dd8565b505050565b600c8060000154908060010154908060020154908060030154908060040154908060050154908060060154905087565b6000601360003373ffffffffffffffffffffffffffffffffffffffff1673ffffffffffffffffffffffffffffffffffffffff16815260200190815260200160002054905060008111610a92576040517f08c379a0000000000000000000000000000000000000000000000000000000008152600401610a8990614c37565b60405180910390fd5b6000600b610aaa60018461303490919063ffffffff16565b81548110610ae1577f4e487b7100000000000000000000000000000000000000000000000000000000600052603260045260246000fd5b906000526020600020906007020190506000816000015411610b38576040517f08c379a0000000000000000000000000000000000000000000000000000000008152600401610b2f90614bf7565b60405180910390fd5b6000600c6000015411610b80576040517f08c379a0000000000000000000000000000000000000000000000000000000008152600401610b7790614ad7565b60405180910390fd5b6000816004015490506000600c600401549050600060328460020154610bdc6040518060400160405280600881526020017f637269746963616c000000000000000000000000000000000000000000000000815250606461304a565b610be69190614f4e565b1115610c0757610c0060028461308b90919063ffffffff16565b9250600290505b60508460030154610c4e6040518060400160405280600481526020017f6d69737300000000000000000000000000000000000000000000000000000000815250606461304a565b610c58919061502f565b1115610c675760009250600190505b60016002811115610ca1577f4e487b7100000000000000000000000000000000000000000000000000000000600052602160045260246000fd5b866002811115610cda577f4e487b7100000000000000000000000000000000000000000000000000000000600052602160045260246000fd5b1415610d0c57610cf78385600001546130a190919063ffffffff16565b84600001819055506000925060009150610eb0565b600280811115610d45577f4e487b7100000000000000000000000000000000000000000000000000000000600052602160045260246000fd5b866002811115610d7e577f4e487b7100000000000000000000000000000000000000000000000000000000600052602160045260246000fd5b1415610eaf5760016003811115610dbe577f4e487b7100000000000000000000000000000000000000000000000000000000600052602160045260246000fd5b84600601541415610dec5760009150610de5600c60040154846130a190919063ffffffff16565b9250610eae565b60026003811115610e26577f4e487b7100000000000000000000000000000000000000000000000000000000600052602160045260246000fd5b84600601541415610e5557610e488385600001546130a190919063ffffffff16565b8460000181905550610ead565b600380811115610e8e577f4e487b7100000000000000000000000000000000000000000000000000000000600052602160045260246000fd5b84600601541415610eac5760c8846000018190555060009150600092505b5b5b5b5b610ec782856000015461303490919063ffffffff16565b8460000181905550610ee783600c6000015461303490919063ffffffff16565b600c60000181905550610f0660016009546130a190919063ffffffff16565b6009819055506000600c600001541415610f39576103e8600c600001819055506000600981905550610f386008612b4d565b5b7f71635286f9fcbabcbb1e298c5f3ae5f1aebd102b56632253b5b716ccfd78b249600c60000154856000015483600954604051610f799493929190614d4d565b60405180910390a1505050505050565b610fa483838360405180602001604052806000815250611789565b505050565b600a8181548110610fb957600080fd5b9060005260206000209060040201600091509050806000018054610fdc9061513e565b80601f01602080910402602001604051908101604052809291908181526020018280546110089061513e565b80156110555780601f1061102a57610100808354040283529160200191611055565b820191906000526020600020905b81548152906001019060200180831161103857829003601f168201915b50505050509080600101805461106a9061513e565b80601f01602080910402602001604051908101604052809291908181526020018280546110969061513e565b80156110e35780601f106110b8576101008083540402835291602001916110e3565b820191906000526020600020905b8154815290600101906020018083116110c657829003601f168201915b5050505050908060020180546110f89061513e565b80601f01602080910402602001604051908101604052809291908181526020018280546111249061513e565b80156111715780601f1061114657610100808354040283529160200191611171565b820191906000526020600020905b81548152906001019060200180831161115457829003601f168201915b5050505050908060030154905084565b6000806002600084815260200190815260200160002060009054906101000a900473ffffffffffffffffffffffffffffffffffffffff169050600073ffffffffffffffffffffffffffffffffffffffff168173ffffffffffffffffffffffffffffffffffffffff16141561122a576040517f08c379a000000000000000000000000000000000000000000000000000000000815260040161122190614bd7565b60405180910390fd5b80915050919050565b600061123f60086130b7565b905090565b60008073ffffffffffffffffffffffffffffffffffffffff168273ffffffffffffffffffffffffffffffffffffffff1614156112b5576040517f08c379a00000000000000000000000000000000000000000000000000000000081526004016112ac90614bb7565b60405180910390fd5b600360008373ffffffffffffffffffffffffffffffffffffffff1673ffffffffffffffffffffffffffffffffffffffff168152602001908152602001600020549050919050565b611304612c39565b73ffffffffffffffffffffffffffffffffffffffff1661132261149e565b73ffffffffffffffffffffffffffffffffffffffff1614611378576040517f08c379a000000000000000000000000000000000000000000000000000000000815260040161136f90614c97565b60405180910390fd5b61138260006130c5565b565b61138c613ab5565b6000601360003373ffffffffffffffffffffffffffffffffffffffff1673ffffffffffffffffffffffffffffffffffffffff168152602001908152602001600020549050600081111561148d57600b6113ef60018361303490919063ffffffff16565b81548110611426577f4e487b7100000000000000000000000000000000000000000000000000000000600052603260045260246000fd5b90600052602060002090600702016040518060e001604052908160008201548152602001600182015481526020016002820154815260200160038201548152602001600482015481526020016005820154815260200160068201548152505091505061149b565b611495613ab5565b80925050505b90565b6000600660009054906101000a900473ffffffffffffffffffffffffffffffffffffffff16905090565b6060600180546114d79061513e565b80601f01602080910402602001604051908101604052809291908181526020018280546115039061513e565b80156115505780601f1061152557610100808354040283529160200191611550565b820191906000526020600020905b81548152906001019060200180831161153357829003601f168201915b5050505050905090565b611562612c39565b73ffffffffffffffffffffffffffffffffffffffff1661158061149e565b73ffffffffffffffffffffffffffffffffffffffff16146115d6576040517f08c379a00000000000000000000000000000000000000000000000000000000081526004016115cd90614c97565b60405180910390fd5b6000600a805490501161161e576040517f08c379a000000000000000000000000000000000000000000000000000000000815260040161161590614c17565b60405180910390fd5b600a805490508410611665576040517f08c379a000000000000000000000000000000000000000000000000000000000815260040161165c90614a77565b60405180910390fd5b6000600a85815481106116a1577f4e487b7100000000000000000000000000000000000000000000000000000000600052603260045260246000fd5b90600052602060002090600402019050838160000190805190602001906116c9929190613af2565b50828160010190805190602001906116e2929190613af2565b50818160020190805190602001906116fb929190613af2565b505050505050565b61171561170e612c39565b838361318b565b5050565b60095481565b600b818154811061172f57600080fd5b90600052602060002090600702016000915090508060000154908060010154908060020154908060030154908060040154908060050154908060060154905087565b60136020528060005260406000206000915090505481565b61179a611794612c39565b83612cfa565b6117d9576040517f08c379a00000000000000000000000000000000000000000000000000000000081526004016117d090614cf7565b60405180910390fd5b6117e5848484846132f8565b50505050565b60606000600b61180560018561303490919063ffffffff16565b8154811061183c577f4e487b7100000000000000000000000000000000000000000000000000000000600052603260045260246000fd5b90600052602060002090600702016040518060e001604052908160008201548152602001600182015481526020016002820154815260200160038201548152602001600482015481526020016005820154815260200160068201548152505090506000600a8260c00151815481106118dd577f4e487b7100000000000000000000000000000000000000000000000000000000600052603260045260246000fd5b90600052602060002090600402016040518060800160405290816000820180546119069061513e565b80601f01602080910402602001604051908101604052809291908181526020018280546119329061513e565b801561197f5780601f106119545761010080835404028352916020019161197f565b820191906000526020600020905b81548152906001019060200180831161196257829003601f168201915b505050505081526020016001820180546119989061513e565b80601f01602080910402602001604051908101604052809291908181526020018280546119c49061513e565b8015611a115780601f106119e657610100808354040283529160200191611a11565b820191906000526020600020905b8154815290600101906020018083116119f457829003601f168201915b50505050508152602001600282018054611a2a9061513e565b80601f0160208091040260200160405190810160405280929190818152602001828054611a569061513e565b8015611aa35780601f10611a7857610100808354040283529160200191611aa3565b820191906000526020600020905b815481529060010190602001808311611a8657829003601f168201915b505050505081526020016003820154815250509050611ac0613b78565b8160000151611ace86613354565b83604001518460200151604051602001611aeb9493929190614872565b60405160208183030381529060405281600060108110611b34577f4e487b7100000000000000000000000000000000000000000000000000000000600052603260045260246000fd5b60200201819052506040518060600160405280603d8152602001615a70603d913981600160108110611b8f577f4e487b7100000000000000000000000000000000000000000000000000000000600052603260045260246000fd5b6020020181905250611ba48360000151613354565b81600260108110611bde577f4e487b7100000000000000000000000000000000000000000000000000000000600052603260045260246000fd5b60200201819052506040518060400160405280600e81526020017f2c20226d61785f76616c7565223a00000000000000000000000000000000000081525081600360108110611c56577f4e487b7100000000000000000000000000000000000000000000000000000000600052603260045260246000fd5b6020020181905250611c6b8360200151613354565b81600460108110611ca5577f4e487b7100000000000000000000000000000000000000000000000000000000600052603260045260246000fd5b60200201819052506040518060600160405280602d8152602001615aad602d913981600560108110611d00577f4e487b7100000000000000000000000000000000000000000000000000000000600052603260045260246000fd5b6020020181905250611d158360800151613354565b81600660108110611d4f577f4e487b7100000000000000000000000000000000000000000000000000000000600052603260045260246000fd5b60200201819052506040518060600160405280602b81526020016159e1602b913981600760108110611daa577f4e487b7100000000000000000000000000000000000000000000000000000000600052603260045260246000fd5b6020020181905250611dbf8360a00151613354565b81600860108110611df9577f4e487b7100000000000000000000000000000000000000000000000000000000600052603260045260246000fd5b6020020181905250604051806060016040528060288152602001615ada6028913981600960108110611e54577f4e487b7100000000000000000000000000000000000000000000000000000000600052603260045260246000fd5b6020020181905250611e698360400151613354565b81600a60108110611ea3577f4e487b7100000000000000000000000000000000000000000000000000000000600052603260045260246000fd5b6020020181905250604051806060016040528060248152602001615a4c6024913981600b60108110611efe577f4e487b7100000000000000000000000000000000000000000000000000000000600052603260045260246000fd5b6020020181905250611f138360600151613354565b81600c60108110611f4d577f4e487b7100000000000000000000000000000000000000000000000000000000600052603260045260246000fd5b60200201819052506040518060600160405280602781526020016159ba6027913981600d60108110611fa8577f4e487b7100000000000000000000000000000000000000000000000000000000600052603260045260246000fd5b6020020181905250611fbd8360c00151613354565b81600e60108110611ff7577f4e487b7100000000000000000000000000000000000000000000000000000000600052603260045260246000fd5b60200201819052506040518060400160405280600581526020017f227d205d7d00000000000000000000000000000000000000000000000000000081525081600f6010811061206f577f4e487b7100000000000000000000000000000000000000000000000000000000600052603260045260246000fd5b60200201819052506000816000601081106120b3577f4e487b7100000000000000000000000000000000000000000000000000000000600052603260045260246000fd5b6020020151826001601081106120f2577f4e487b7100000000000000000000000000000000000000000000000000000000600052603260045260246000fd5b602002015183600260108110612131577f4e487b7100000000000000000000000000000000000000000000000000000000600052603260045260246000fd5b602002015184600360108110612170577f4e487b7100000000000000000000000000000000000000000000000000000000600052603260045260246000fd5b6020020151856004601081106121af577f4e487b7100000000000000000000000000000000000000000000000000000000600052603260045260246000fd5b6020020151866005601081106121ee577f4e487b7100000000000000000000000000000000000000000000000000000000600052603260045260246000fd5b60200201518760066010811061222d577f4e487b7100000000000000000000000000000000000000000000000000000000600052603260045260246000fd5b60200201518860076010811061226c577f4e487b7100000000000000000000000000000000000000000000000000000000600052603260045260246000fd5b6020020151604051602001612288989796959493929190614759565b604051602081830303815290604052905080826008601081106122d4577f4e487b7100000000000000000000000000000000000000000000000000000000600052603260045260246000fd5b602002015183600960108110612313577f4e487b7100000000000000000000000000000000000000000000000000000000600052603260045260246000fd5b602002015184600a60108110612352577f4e487b7100000000000000000000000000000000000000000000000000000000600052603260045260246000fd5b602002015185600b60108110612391577f4e487b7100000000000000000000000000000000000000000000000000000000600052603260045260246000fd5b602002015186600c601081106123d0577f4e487b7100000000000000000000000000000000000000000000000000000000600052603260045260246000fd5b602002015187600d6010811061240f577f4e487b7100000000000000000000000000000000000000000000000000000000600052603260045260246000fd5b602002015188600e6010811061244e577f4e487b7100000000000000000000000000000000000000000000000000000000600052603260045260246000fd5b602002015189600f6010811061248d577f4e487b7100000000000000000000000000000000000000000000000000000000600052603260045260246000fd5b60200201516040516020016124aa999897969594939291906147cb565b604051602081830303815290604052905060006124c682613501565b90506000816040516020016124db91906148dc565b6040516020818303038152906040529050809650505050505050919050565b60088060000154905081565b6000600560008473ffffffffffffffffffffffffffffffffffffffff1673ffffffffffffffffffffffffffffffffffffffff16815260200190815260200160002060008373ffffffffffffffffffffffffffffffffffffffff1673ffffffffffffffffffffffffffffffffffffffff16815260200190815260200160002060009054906101000a900460ff16905092915050565b6060600a805480602002602001604051908101604052809291908181526020016000905b828210156127b057838290600052602060002090600402016040518060800160405290816000820180546125f19061513e565b80601f016020809104026020016040519081016040528092919081815260200182805461261d9061513e565b801561266a5780601f1061263f5761010080835404028352916020019161266a565b820191906000526020600020905b81548152906001019060200180831161264d57829003601f168201915b505050505081526020016001820180546126839061513e565b80601f01602080910402602001604051908101604052809291908181526020018280546126af9061513e565b80156126fc5780601f106126d1576101008083540402835291602001916126fc565b820191906000526020600020905b8154815290600101906020018083116126df57829003601f168201915b505050505081526020016002820180546127159061513e565b80601f01602080910402602001604051908101604052809291908181526020018280546127419061513e565b801561278e5780601f106127635761010080835404028352916020019161278e565b820191906000526020600020905b81548152906001019060200180831161277157829003601f168201915b50505050508152602001600382015481525050815260200190600101906125be565b50505050905090565b6127c1612c39565b73ffffffffffffffffffffffffffffffffffffffff166127df61149e565b73ffffffffffffffffffffffffffffffffffffffff1614612835576040517f08c379a000000000000000000000000000000000000000000000000000000000815260040161282c90614c97565b60405180910390fd5b600073ffffffffffffffffffffffffffffffffffffffff168173ffffffffffffffffffffffffffffffffffffffff1614156128a5576040517f08c379a000000000000000000000000000000000000000000000000000000000815260040161289c90614ab7565b60405180910390fd5b6128ae816130c5565b50565b6000811180156128c55750600a8054905081105b612904576040517f08c379a00000000000000000000000000000000000000000000000000000000081526004016128fb90614b17565b60405180910390fd5b600061291060076130b7565b905061291c33826136bf565b80601360003373ffffffffffffffffffffffffffffffffffffffff1673ffffffffffffffffffffffffffffffffffffffff16815260200190815260200160002081905550600b6040518060e0016040528060c8815260200160c881526020016129bb6040518060400160405280600881526020017f435249544943414c000000000000000000000000000000000000000000000000815250601461304a565b8152602001612a006040518060400160405280600481526020017f4d49535300000000000000000000000000000000000000000000000000000000815250601461304a565b8152602001612a456040518060400160405280600581526020017f415454414b000000000000000000000000000000000000000000000000000000815250601961304a565b8152602001612a8a6040518060400160405280600481526020017f4845414c00000000000000000000000000000000000000000000000000000000815250601961304a565b8152602001848152509080600181540180825580915050600190039060005260206000209060070201600090919091909150600082015181600001556020820151816001015560408201518160020155606082015181600301556080820151816004015560a0820151816005015560c082015181600601555050612b0e6007612b4d565b7f4bc303fd457a97b4691b9af582ce71868a3d258638c8d4f8c60988a0f0bfb8cd338284604051612b4193929190614965565b60405180910390a15050565b6001816000016000828254019250508190555050565b60007f01ffc9a7000000000000000000000000000000000000000000000000000000007bffffffffffffffffffffffffffffffffffffffffffffffffffffffff1916827bffffffffffffffffffffffffffffffffffffffffffffffffffffffff1916149050919050565b60008073ffffffffffffffffffffffffffffffffffffffff166002600084815260200190815260200160002060009054906101000a900473ffffffffffffffffffffffffffffffffffffffff1673ffffffffffffffffffffffffffffffffffffffff1614159050919050565b600033905090565b816004600083815260200190815260200160002060006101000a81548173ffffffffffffffffffffffffffffffffffffffff021916908373ffffffffffffffffffffffffffffffffffffffff160217905550808273ffffffffffffffffffffffffffffffffffffffff16612cb483611181565b73ffffffffffffffffffffffffffffffffffffffff167f8c5be1e5ebec7d5bd14f71427d1e84f3dd0314c0f7b2291e5b200ac8c7c3b92560405160405180910390a45050565b6000612d0582612bcd565b612d44576040517f08c379a0000000000000000000000000000000000000000000000000000000008152600401612d3b90614b77565b60405180910390fd5b6000612d4f83611181565b90508073ffffffffffffffffffffffffffffffffffffffff168473ffffffffffffffffffffffffffffffffffffffff161480612dbe57508373ffffffffffffffffffffffffffffffffffffffff16612da684610739565b73ffffffffffffffffffffffffffffffffffffffff16145b80612dcf5750612dce8185612506565b5b91505092915050565b8273ffffffffffffffffffffffffffffffffffffffff16612df882611181565b73ffffffffffffffffffffffffffffffffffffffff1614612e4e576040517f08c379a0000000000000000000000000000000000000000000000000000000008152600401612e4590614cb7565b60405180910390fd5b600073ffffffffffffffffffffffffffffffffffffffff168273ffffffffffffffffffffffffffffffffffffffff161415612ebe576040517f08c379a0000000000000000000000000000000000000000000000000000000008152600401612eb590614b37565b60405180910390fd5b612ec98383836136dd565b612ed4600082612c41565b6001600360008573ffffffffffffffffffffffffffffffffffffffff1673ffffffffffffffffffffffffffffffffffffffff1681526020019081526020016000206000828254612f24919061502f565b925050819055506001600360008473ffffffffffffffffffffffffffffffffffffffff1673ffffffffffffffffffffffffffffffffffffffff1681526020019081526020016000206000828254612f7b9190614f4e565b92505081905550816002600083815260200190815260200160002060006101000a81548173ffffffffffffffffffffffffffffffffffffffff021916908373ffffffffffffffffffffffffffffffffffffffff160217905550808273ffffffffffffffffffffffffffffffffffffffff168473ffffffffffffffffffffffffffffffffffffffff167fddf252ad1be2c89b69c2b068fc378daa952ba7f163c4a11628f55a4df523b3ef60405160405180910390a4505050565b60008183613042919061502f565b905092915050565b600081834260405160200161306092919061484a565b6040516020818303038152906040528051906020012060001c61308391906151f4565b905092915050565b600081836130999190614fd5565b905092915050565b600081836130af9190614f4e565b905092915050565b600081600001549050919050565b6000600660009054906101000a900473ffffffffffffffffffffffffffffffffffffffff16905081600660006101000a81548173ffffffffffffffffffffffffffffffffffffffff021916908373ffffffffffffffffffffffffffffffffffffffff1602179055508173ffffffffffffffffffffffffffffffffffffffff168173ffffffffffffffffffffffffffffffffffffffff167f8be0079c531659141344cd1fd0a4f28419497f9722a3daafe3b4186f6b6457e060405160405180910390a35050565b8173ffffffffffffffffffffffffffffffffffffffff168373ffffffffffffffffffffffffffffffffffffffff1614156131fa576040517f08c379a00000000000000000000000000000000000000000000000000000000081526004016131f190614b57565b60405180910390fd5b80600560008573ffffffffffffffffffffffffffffffffffffffff1673ffffffffffffffffffffffffffffffffffffffff16815260200190815260200160002060008473ffffffffffffffffffffffffffffffffffffffff1673ffffffffffffffffffffffffffffffffffffffff16815260200190815260200160002060006101000a81548160ff0219169083151502179055508173ffffffffffffffffffffffffffffffffffffffff168373ffffffffffffffffffffffffffffffffffffffff167f17307eab39ab6107e8899845ad3d59bd9653f200f220920489ca2b5937696c31836040516132eb91906149e0565b60405180910390a3505050565b613303848484612dd8565b61330f848484846136e2565b61334e576040517f08c379a000000000000000000000000000000000000000000000000000000000815260040161334590614a97565b60405180910390fd5b50505050565b6060600082141561339c576040518060400160405280600181526020017f300000000000000000000000000000000000000000000000000000000000000081525090506134fc565b600082905060005b600082146133ce5780806133b7906151a1565b915050600a826133c79190614fa4565b91506133a4565b60008167ffffffffffffffff811115613410577f4e487b7100000000000000000000000000000000000000000000000000000000600052604160045260246000fd5b6040519080825280601f01601f1916602001820160405280156134425781602001600182028036833780820191505090505b5090505b600085146134f55760018261345b919061502f565b9150600a8561346a91906151f4565b60306134769190614f4e565b60f81b8183815181106134b2577f4e487b7100000000000000000000000000000000000000000000000000000000600052603260045260246000fd5b60200101907effffffffffffffffffffffffffffffffffffffffffffffffffffffffffffff1916908160001a905350600a856134ee9190614fa4565b9450613446565b8093505050505b919050565b6060600082519050600081141561352a57604051806020016040528060008152509150506136ba565b6000600360028361353b9190614f4e565b6135459190614fa4565b60046135519190614fd5565b905060006020826135629190614f4e565b67ffffffffffffffff8111156135a1577f4e487b7100000000000000000000000000000000000000000000000000000000600052604160045260246000fd5b6040519080825280601f01601f1916602001820160405280156135d35781602001600182028036833780820191505090505b5090506000604051806060016040528060408152602001615a0c604091399050600181016020830160005b868110156136775760038101905062ffffff818a015116603f8160121c168401518060081b905060ff603f83600c1c1686015116810190508060081b905060ff603f8360061c1686015116810190508060081b905060ff603f831686015116810190508060e01b905080845260048401935050506135fe565b50600386066001811461369157600281146136a1576136ac565b613d3d60f01b60028303526136ac565b603d60f81b60018303525b508484525050819450505050505b919050565b6136d9828260405180602001604052806000815250613879565b5050565b505050565b60006137038473ffffffffffffffffffffffffffffffffffffffff166138d4565b1561386c578373ffffffffffffffffffffffffffffffffffffffff1663150b7a0261372c612c39565b8786866040518563ffffffff1660e01b815260040161374e9493929190614919565b602060405180830381600087803b15801561376857600080fd5b505af192505050801561379957506040513d601f19601f820116820180604052508101906137969190613edb565b60015b61381c573d80600081146137c9576040519150601f19603f3d011682016040523d82523d6000602084013e6137ce565b606091505b50600081511415613814576040517f08c379a000000000000000000000000000000000000000000000000000000000815260040161380b90614a97565b60405180910390fd5b805181602001fd5b63150b7a0260e01b7bffffffffffffffffffffffffffffffffffffffffffffffffffffffff1916817bffffffffffffffffffffffffffffffffffffffffffffffffffffffff191614915050613871565b600190505b949350505050565b61388383836138e7565b61389060008484846136e2565b6138cf576040517f08c379a00000000000000000000000000000000000000000000000000000000081526004016138c690614a97565b60405180910390fd5b505050565b600080823b905060008111915050919050565b600073ffffffffffffffffffffffffffffffffffffffff168273ffffffffffffffffffffffffffffffffffffffff161415613957576040517f08c379a000000000000000000000000000000000000000000000000000000000815260040161394e90614c57565b60405180910390fd5b61396081612bcd565b156139a0576040517f08c379a000000000000000000000000000000000000000000000000000000000815260040161399790614af7565b60405180910390fd5b6139ac600083836136dd565b6001600360008473ffffffffffffffffffffffffffffffffffffffff1673ffffffffffffffffffffffffffffffffffffffff16815260200190815260200160002060008282546139fc9190614f4e565b92505081905550816002600083815260200190815260200160002060006101000a81548173ffffffffffffffffffffffffffffffffffffffff021916908373ffffffffffffffffffffffffffffffffffffffff160217905550808273ffffffffffffffffffffffffffffffffffffffff16600073ffffffffffffffffffffffffffffffffffffffff167fddf252ad1be2c89b69c2b068fc378daa952ba7f163c4a11628f55a4df523b3ef60405160405180910390a45050565b6040518060e00160405280600081526020016000815260200160008152602001600081526020016000815260200160008152602001600081525090565b828054613afe9061513e565b90600052602060002090601f016020900481019282613b205760008555613b67565b82601f10613b3957805160ff1916838001178555613b67565b82800160010185558215613b67579182015b82811115613b66578251825591602001919060010190613b4b565b5b509050613b749190613ba0565b5090565b6040518061020001604052806010905b6060815260200190600190039081613b885790505090565b5b80821115613bb9576000816000905550600101613ba1565b5090565b6000613bd0613bcb84614e26565b614e01565b905082815260208101848484011115613be857600080fd5b613bf38482856150fc565b509392505050565b6000613c0e613c0984614e57565b614e01565b905082815260208101848484011115613c2657600080fd5b613c318482856150fc565b509392505050565b600081359050613c488161594d565b92915050565b600081359050613c5d81615964565b92915050565b600081359050613c728161597b565b92915050565b600081519050613c878161597b565b92915050565b600082601f830112613c9e57600080fd5b8135613cae848260208601613bbd565b91505092915050565b600081359050613cc681615992565b92915050565b600082601f830112613cdd57600080fd5b8135613ced848260208601613bfb565b91505092915050565b600081359050613d05816159a2565b92915050565b600060208284031215613d1d57600080fd5b6000613d2b84828501613c39565b91505092915050565b60008060408385031215613d4757600080fd5b6000613d5585828601613c39565b9250506020613d6685828601613c39565b9150509250929050565b600080600060608486031215613d8557600080fd5b6000613d9386828701613c39565b9350506020613da486828701613c39565b9250506040613db586828701613cf6565b9150509250925092565b60008060008060808587031215613dd557600080fd5b6000613de387828801613c39565b9450506020613df487828801613c39565b9350506040613e0587828801613cf6565b925050606085013567ffffffffffffffff811115613e2257600080fd5b613e2e87828801613c8d565b91505092959194509250565b60008060408385031215613e4d57600080fd5b6000613e5b85828601613c39565b9250506020613e6c85828601613c4e565b9150509250929050565b60008060408385031215613e8957600080fd5b6000613e9785828601613c39565b9250506020613ea885828601613cf6565b9150509250929050565b600060208284031215613ec457600080fd5b6000613ed284828501613c63565b91505092915050565b600060208284031215613eed57600080fd5b6000613efb84828501613c78565b91505092915050565b600060208284031215613f1657600080fd5b6000613f2484828501613cb7565b91505092915050565b600060208284031215613f3f57600080fd5b6000613f4d84828501613cf6565b91505092915050565b60008060008060808587031215613f6c57600080fd5b6000613f7a87828801613cf6565b945050602085013567ffffffffffffffff811115613f9757600080fd5b613fa387828801613ccc565b935050604085013567ffffffffffffffff811115613fc057600080fd5b613fcc87828801613ccc565b925050606085013567ffffffffffffffff811115613fe957600080fd5b613ff587828801613ccc565b91505092959194509250565b600061400d8383614597565b905092915050565b60006140218383614608565b60e08301905092915050565b61403681615063565b82525050565b600061404782614ea8565b6140518185614eee565b93508360208202850161406385614e88565b8060005b8581101561409f57848403895281516140808582614001565b945061408b83614ed4565b925060208a01995050600181019050614067565b50829750879550505050505092915050565b60006140bc82614eb3565b6140c68185614eff565b93506140d183614e98565b8060005b838110156141025781516140e98882614015565b97506140f483614ee1565b9250506001810190506140d5565b5085935050505092915050565b61411881615075565b82525050565b600061412982614ebe565b6141338185614f10565b935061414381856020860161510b565b61414c81615310565b840191505092915050565b614160816150ea565b82525050565b600061417182614ec9565b61417b8185614f21565b935061418b81856020860161510b565b61419481615310565b840191505092915050565b60006141aa82614ec9565b6141b48185614f32565b93506141c481856020860161510b565b6141cd81615310565b840191505092915050565b60006141e382614ec9565b6141ed8185614f43565b93506141fd81856020860161510b565b80840191505092915050565b6000614216601a83614f32565b915061422182615321565b602082019050919050565b6000614239600b83614f43565b91506142448261534a565b600b82019050919050565b600061425c601383614f43565b915061426782615373565b601382019050919050565b600061427f603283614f32565b915061428a8261539c565b604082019050919050565b60006142a2602683614f32565b91506142ad826153eb565b604082019050919050565b60006142c5602883614f32565b91506142d08261543a565b604082019050919050565b60006142e8601c83614f32565b91506142f382615489565b602082019050919050565b600061430b601b83614f32565b9150614316826154b2565b602082019050919050565b600061432e602483614f32565b9150614339826154db565b604082019050919050565b6000614351601983614f32565b915061435c8261552a565b602082019050919050565b6000614374602c83614f32565b915061437f82615553565b604082019050919050565b6000614397603883614f32565b91506143a2826155a2565b604082019050919050565b60006143ba602a83614f32565b91506143c5826155f1565b604082019050919050565b60006143dd602983614f32565b91506143e882615640565b604082019050919050565b6000614400602d83614f32565b915061440b8261568f565b604082019050919050565b6000614423601b83614f32565b915061442e826156de565b602082019050919050565b6000614446601983614f32565b915061445182615707565b602082019050919050565b6000614469602083614f32565b915061447482615730565b602082019050919050565b600061448c602c83614f32565b915061449782615759565b604082019050919050565b60006144af602083614f32565b91506144ba826157a8565b602082019050919050565b60006144d2602983614f32565b91506144dd826157d1565b604082019050919050565b60006144f5600a83614f43565b915061450082615820565b600a82019050919050565b6000614518602183614f32565b915061452382615849565b604082019050919050565b600061453b601483614f43565b915061454682615898565b601482019050919050565b600061455e601d83614f43565b9150614569826158c1565b601d82019050919050565b6000614581603183614f32565b915061458c826158ea565b604082019050919050565b600060808301600083015184820360008601526145b48282614166565b915050602083015184820360208601526145ce8282614166565b915050604083015184820360408601526145e88282614166565b91505060608301516145fd6060860182614724565b508091505092915050565b60e08201600082015161461e6000850182614724565b5060208201516146316020850182614724565b5060408201516146446040850182614724565b5060608201516146576060850182614724565b50608082015161466a6080850182614724565b5060a082015161467d60a0850182614724565b5060c082015161469060c0850182614724565b50505050565b60e0820160008201516146ac6000850182614724565b5060208201516146bf6020850182614724565b5060408201516146d26040850182614724565b5060608201516146e56060850182614724565b5060808201516146f86080850182614724565b5060a082015161470b60a0850182614724565b5060c082015161471e60c0850182614724565b50505050565b61472d816150e0565b82525050565b61473c816150e0565b82525050565b61475361474e826150e0565b6151ea565b82525050565b6000614765828b6141d8565b9150614771828a6141d8565b915061477d82896141d8565b915061478982886141d8565b915061479582876141d8565b91506147a182866141d8565b91506147ad82856141d8565b91506147b982846141d8565b91508190509998505050505050505050565b60006147d7828c6141d8565b91506147e3828b6141d8565b91506147ef828a6141d8565b91506147fb82896141d8565b915061480782886141d8565b915061481382876141d8565b915061481f82866141d8565b915061482b82856141d8565b915061483782846141d8565b91508190509a9950505050505050505050565b600061485682856141d8565b91506148628284614742565b6020820191508190509392505050565b600061487d826144e8565b915061488982876141d8565b91506148948261422c565b91506148a082866141d8565b91506148ab8261424f565b91506148b782856141d8565b91506148c28261452e565b91506148ce82846141d8565b915081905095945050505050565b60006148e782614551565b91506148f382846141d8565b915081905092915050565b6000602082019050614913600083018461402d565b92915050565b600060808201905061492e600083018761402d565b61493b602083018661402d565b6149486040830185614733565b818103606083015261495a818461411e565b905095945050505050565b600060608201905061497a600083018661402d565b6149876020830185614733565b6149946040830184614733565b949350505050565b600060208201905081810360008301526149b6818461403c565b905092915050565b600060208201905081810360008301526149d881846140b1565b905092915050565b60006020820190506149f5600083018461410f565b92915050565b60006020820190508181036000830152614a15818461419f565b905092915050565b60006080820190508181036000830152614a37818761419f565b90508181036020830152614a4b818661419f565b90508181036040830152614a5f818561419f565b9050614a6e6060830184614733565b95945050505050565b60006020820190508181036000830152614a9081614209565b9050919050565b60006020820190508181036000830152614ab081614272565b9050919050565b60006020820190508181036000830152614ad081614295565b9050919050565b60006020820190508181036000830152614af0816142b8565b9050919050565b60006020820190508181036000830152614b10816142db565b9050919050565b60006020820190508181036000830152614b30816142fe565b9050919050565b60006020820190508181036000830152614b5081614321565b9050919050565b60006020820190508181036000830152614b7081614344565b9050919050565b60006020820190508181036000830152614b9081614367565b9050919050565b60006020820190508181036000830152614bb08161438a565b9050919050565b60006020820190508181036000830152614bd0816143ad565b9050919050565b60006020820190508181036000830152614bf0816143d0565b9050919050565b60006020820190508181036000830152614c10816143f3565b9050919050565b60006020820190508181036000830152614c3081614416565b9050919050565b60006020820190508181036000830152614c5081614439565b9050919050565b60006020820190508181036000830152614c708161445c565b9050919050565b60006020820190508181036000830152614c908161447f565b9050919050565b60006020820190508181036000830152614cb0816144a2565b9050919050565b60006020820190508181036000830152614cd0816144c5565b9050919050565b60006020820190508181036000830152614cf08161450b565b9050919050565b60006020820190508181036000830152614d1081614574565b9050919050565b600060e082019050614d2c6000830184614696565b92915050565b6000602082019050614d476000830184614733565b92915050565b6000608082019050614d626000830187614733565b614d6f6020830186614733565b614d7c6040830185614157565b614d896060830184614733565b95945050505050565b600060e082019050614da7600083018a614733565b614db46020830189614733565b614dc16040830188614733565b614dce6060830187614733565b614ddb6080830186614733565b614de860a0830185614733565b614df560c0830184614733565b98975050505050505050565b6000614e0b614e1c565b9050614e178282615170565b919050565b6000604051905090565b600067ffffffffffffffff821115614e4157614e406152e1565b5b614e4a82615310565b9050602081019050919050565b600067ffffffffffffffff821115614e7257614e716152e1565b5b614e7b82615310565b9050602081019050919050565b6000819050602082019050919050565b6000819050602082019050919050565b600081519050919050565b600081519050919050565b600081519050919050565b600081519050919050565b6000602082019050919050565b6000602082019050919050565b600082825260208201905092915050565b600082825260208201905092915050565b600082825260208201905092915050565b600082825260208201905092915050565b600082825260208201905092915050565b600081905092915050565b6000614f59826150e0565b9150614f64836150e0565b9250827fffffffffffffffffffffffffffffffffffffffffffffffffffffffffffffffff03821115614f9957614f98615225565b5b828201905092915050565b6000614faf826150e0565b9150614fba836150e0565b925082614fca57614fc9615254565b5b828204905092915050565b6000614fe0826150e0565b9150614feb836150e0565b9250817fffffffffffffffffffffffffffffffffffffffffffffffffffffffffffffffff048311821515161561502457615023615225565b5b828202905092915050565b600061503a826150e0565b9150615045836150e0565b92508282101561505857615057615225565b5b828203905092915050565b600061506e826150c0565b9050919050565b60008115159050919050565b60007fffffffff0000000000000000000000000000000000000000000000000000000082169050919050565b60008190506150bb82615939565b919050565b600073ffffffffffffffffffffffffffffffffffffffff82169050919050565b6000819050919050565b60006150f5826150ad565b9050919050565b82818337600083830152505050565b60005b8381101561512957808201518184015260208101905061510e565b83811115615138576000848401525b50505050565b6000600282049050600182168061515657607f821691505b6020821081141561516a576151696152b2565b5b50919050565b61517982615310565b810181811067ffffffffffffffff82111715615198576151976152e1565b5b80604052505050565b60006151ac826150e0565b91507fffffffffffffffffffffffffffffffffffffffffffffffffffffffffffffffff8214156151df576151de615225565b5b600182019050919050565b6000819050919050565b60006151ff826150e0565b915061520a836150e0565b92508261521a57615219615254565b5b828206905092915050565b7f4e487b7100000000000000000000000000000000000000000000000000000000600052601160045260246000fd5b7f4e487b7100000000000000000000000000000000000000000000000000000000600052601260045260246000fd5b7f4e487b7100000000000000000000000000000000000000000000000000000000600052602160045260246000fd5b7f4e487b7100000000000000000000000000000000000000000000000000000000600052602260045260246000fd5b7f4e487b7100000000000000000000000000000000000000000000000000000000600052604160045260246000fd5b6000601f19601f8301169050919050565b7f4368617261637465724964206973206e6f74206578697465642e000000000000600082015250565b7f202d2d204e465420233a20000000000000000000000000000000000000000000600082015250565b7f222c20226465736372697074696f6e223a202200000000000000000000000000600082015250565b7f4552433732313a207472616e7366657220746f206e6f6e20455243373231526560008201527f63656976657220696d706c656d656e7465720000000000000000000000000000602082015250565b7f4f776e61626c653a206e6577206f776e657220697320746865207a65726f206160008201527f6464726573730000000000000000000000000000000000000000000000000000602082015250565b7f4572726f723a20626f7373206d757374206861766520485020746f206174746160008201527f636b20626f73732e000000000000000000000000000000000000000000000000602082015250565b7f4552433732313a20746f6b656e20616c7265616479206d696e74656400000000600082015250565b7f4368617261637465724964206973206e6f7420657869737465642e0000000000600082015250565b7f4552433732313a207472616e7366657220746f20746865207a65726f2061646460008201527f7265737300000000000000000000000000000000000000000000000000000000602082015250565b7f4552433732313a20617070726f766520746f2063616c6c657200000000000000600082015250565b7f4552433732313a206f70657261746f7220717565727920666f72206e6f6e657860008201527f697374656e7420746f6b656e0000000000000000000000000000000000000000602082015250565b7f4552433732313a20617070726f76652063616c6c6572206973206e6f74206f7760008201527f6e6572206e6f7220617070726f76656420666f7220616c6c0000000000000000602082015250565b7f4552433732313a2062616c616e636520717565727920666f7220746865207a6560008201527f726f206164647265737300000000000000000000000000000000000000000000602082015250565b7f4552433732313a206f776e657220717565727920666f72206e6f6e657869737460008201527f656e7420746f6b656e0000000000000000000000000000000000000000000000602082015250565b7f4572726f723a20636861726163746572206d757374206861766520485020746f60008201527f2061747461636b20626f73732e00000000000000000000000000000000000000602082015250565b7f436861726163746572732061726520756e696e697469616c65642e0000000000600082015250565b7f557365722063686172616374657220756e637265617465642e00000000000000600082015250565b7f4552433732313a206d696e7420746f20746865207a65726f2061646472657373600082015250565b7f4552433732313a20617070726f76656420717565727920666f72206e6f6e657860008201527f697374656e7420746f6b656e0000000000000000000000000000000000000000602082015250565b7f4f776e61626c653a2063616c6c6572206973206e6f7420746865206f776e6572600082015250565b7f4552433732313a207472616e73666572206f6620746f6b656e2074686174206960008201527f73206e6f74206f776e0000000000000000000000000000000000000000000000602082015250565b7f7b226e616d65223a202200000000000000000000000000000000000000000000600082015250565b7f4552433732313a20617070726f76616c20746f2063757272656e74206f776e6560008201527f7200000000000000000000000000000000000000000000000000000000000000602082015250565b7f22202c22696d616765223a2022697066733a2f2f000000000000000000000000600082015250565b7f646174613a6170706c69636174696f6e2f6a736f6e3b6261736536342c000000600082015250565b7f4552433732313a207472616e736665722063616c6c6572206973206e6f74206f60008201527f776e6572206e6f7220617070726f766564000000000000000000000000000000602082015250565b6003811061594a57615949615283565b5b50565b61595681615063565b811461596157600080fd5b50565b61596d81615075565b811461597857600080fd5b50565b61598481615081565b811461598f57600080fd5b50565b6003811061599f57600080fd5b50565b6159ab816150e0565b81146159b657600080fd5b5056fe7d2c207b202274726169745f74797065223a2022534543524554222c202276616c7565223a20227d2c207b202274726169745f74797065223a20224845414c2044616d616765222c202276616c7565223a204142434445464748494a4b4c4d4e4f505152535455565758595a6162636465666768696a6b6c6d6e6f707172737475767778797a303132333435363738392b2f7d2c207b202274726169745f74797065223a20224d495353222c202276616c7565223a20222c202261747472696275746573223a205b207b202274726169745f74797065223a20224865616c746820506f696e7473222c202276616c7565223a207d2c207b202274726169745f74797065223a202241747461636b2044616d616765222c202276616c7565223a207d2c207b202274726169745f74797065223a2022437269746963616c222c202276616c7565223a20a26469706673582212208e7a65f890c89c89919c2aecd990791af942b7265242bd0d1dd643fc115c517c64736f6c63430008040033",
  "linkReferences": {},
  "deployedLinkReferences": {}
}